{
	"Wallet.sol": {
		"WalletFactory": {
			"abi": [
				{
					"anonymous": false,
					"inputs": [
						{
							"indexed": false,
							"internalType": "address",
							"name": "walletAddress",
							"type": "address"
						}
					],
					"name": "WalletCreated",
					"type": "event"
				},
				{
					"inputs": [
						{
							"internalType": "address",
							"name": "owner",
							"type": "address"
						}
					],
					"name": "createWallet",
					"outputs": [
						{
							"internalType": "address",
							"name": "",
							"type": "address"
						}
					],
					"stateMutability": "nonpayable",
					"type": "function"
				}
			],
			"devdoc": {
				"kind": "dev",
				"methods": {},
				"version": 1
			},
			"evm": {
				"assembly": "    /* \"Wallet.sol\":60:346  contract WalletFactory {... */\n  mstore(0x40, 0x80)\n  callvalue\n  dup1\n  iszero\n  tag_1\n  jumpi\n  0x00\n  dup1\n  revert\ntag_1:\n  pop\n  dataSize(sub_0)\n  dup1\n  dataOffset(sub_0)\n  0x00\n  codecopy\n  0x00\n  return\nstop\n\nsub_0: assembly {\n        /* \"Wallet.sol\":60:346  contract WalletFactory {... */\n      mstore(0x40, 0x80)\n      callvalue\n      dup1\n      iszero\n      tag_1\n      jumpi\n      0x00\n      dup1\n      revert\n    tag_1:\n      pop\n      jumpi(tag_2, lt(calldatasize, 0x04))\n      shr(0xe0, calldataload(0x00))\n      dup1\n      0xb054a9e8\n      eq\n      tag_3\n      jumpi\n    tag_2:\n      0x00\n      dup1\n      revert\n        /* \"Wallet.sol\":141:343  function createWallet(address owner) public returns (address) {... */\n    tag_3:\n      tag_4\n      0x04\n      dup1\n      calldatasize\n      sub\n      dup2\n      add\n      swap1\n      tag_5\n      swap2\n      swap1\n      tag_6\n      jump\t// in\n    tag_5:\n      tag_7\n      jump\t// in\n    tag_4:\n      mload(0x40)\n      tag_8\n      swap2\n      swap1\n      tag_9\n      jump\t// in\n    tag_8:\n      mload(0x40)\n      dup1\n      swap2\n      sub\n      swap1\n      return\n    tag_7:\n        /* \"Wallet.sol\":194:201  address */\n      0x00\n        /* \"Wallet.sol\":214:230  Wallet newWallet */\n      dup1\n        /* \"Wallet.sol\":244:249  owner */\n      dup3\n        /* \"Wallet.sol\":233:250  new Wallet(owner) */\n      mload(0x40)\n      tag_11\n      swap1\n      tag_12\n      jump\t// in\n    tag_11:\n      tag_13\n      swap2\n      swap1\n      tag_9\n      jump\t// in\n    tag_13:\n      mload(0x40)\n      dup1\n      swap2\n      sub\n      swap1\n      0x00\n      create\n      dup1\n      iszero\n      dup1\n      iszero\n      tag_14\n      jumpi\n      returndatasize\n      0x00\n      dup1\n      returndatacopy\n      revert(0x00, returndatasize)\n    tag_14:\n      pop\n        /* \"Wallet.sol\":214:250  Wallet newWallet = new Wallet(owner) */\n      swap1\n      pop\n        /* \"Wallet.sol\":266:299  WalletCreated(address(newWallet)) */\n      0x234cf33b32239d80b54161e2396c80cdeaf4d34161300e54d8bc01eb7c0ea553\n        /* \"Wallet.sol\":288:297  newWallet */\n      dup2\n        /* \"Wallet.sol\":266:299  WalletCreated(address(newWallet)) */\n      mload(0x40)\n      tag_15\n      swap2\n      swap1\n      tag_9\n      jump\t// in\n    tag_15:\n      mload(0x40)\n      dup1\n      swap2\n      sub\n      swap1\n      log1\n        /* \"Wallet.sol\":325:334  newWallet */\n      dup1\n        /* \"Wallet.sol\":310:335  return address(newWallet) */\n      swap2\n      pop\n      pop\n        /* \"Wallet.sol\":141:343  function createWallet(address owner) public returns (address) {... */\n      swap2\n      swap1\n      pop\n      jump\t// out\n    tag_12:\n      dataSize(sub_0)\n      dup1\n      dataOffset(sub_0)\n      dup4\n      codecopy\n      add\n      swap1\n      jump\t// out\n        /* \"#utility.yul\":88:205   */\n    tag_17:\n        /* \"#utility.yul\":197:198   */\n      0x00\n        /* \"#utility.yul\":194:195   */\n      dup1\n        /* \"#utility.yul\":187:199   */\n      revert\n        /* \"#utility.yul\":334:460   */\n    tag_19:\n        /* \"#utility.yul\":371:378   */\n      0x00\n        /* \"#utility.yul\":411:453   */\n      0xffffffffffffffffffffffffffffffffffffffff\n        /* \"#utility.yul\":404:409   */\n      dup3\n        /* \"#utility.yul\":400:454   */\n      and\n        /* \"#utility.yul\":389:454   */\n      swap1\n      pop\n        /* \"#utility.yul\":334:460   */\n      swap2\n      swap1\n      pop\n      jump\t// out\n        /* \"#utility.yul\":466:562   */\n    tag_20:\n        /* \"#utility.yul\":503:510   */\n      0x00\n        /* \"#utility.yul\":532:556   */\n      tag_30\n        /* \"#utility.yul\":550:555   */\n      dup3\n        /* \"#utility.yul\":532:556   */\n      tag_19\n      jump\t// in\n    tag_30:\n        /* \"#utility.yul\":521:556   */\n      swap1\n      pop\n        /* \"#utility.yul\":466:562   */\n      swap2\n      swap1\n      pop\n      jump\t// out\n        /* \"#utility.yul\":568:690   */\n    tag_21:\n        /* \"#utility.yul\":641:665   */\n      tag_32\n        /* \"#utility.yul\":659:664   */\n      dup2\n        /* \"#utility.yul\":641:665   */\n      tag_20\n      jump\t// in\n    tag_32:\n        /* \"#utility.yul\":634:639   */\n      dup2\n        /* \"#utility.yul\":631:666   */\n      eq\n        /* \"#utility.yul\":621:684   */\n      tag_33\n      jumpi\n        /* \"#utility.yul\":680:681   */\n      0x00\n        /* \"#utility.yul\":677:678   */\n      dup1\n        /* \"#utility.yul\":670:682   */\n      revert\n        /* \"#utility.yul\":621:684   */\n    tag_33:\n        /* \"#utility.yul\":568:690   */\n      pop\n      jump\t// out\n        /* \"#utility.yul\":696:835   */\n    tag_22:\n        /* \"#utility.yul\":742:747   */\n      0x00\n        /* \"#utility.yul\":780:786   */\n      dup2\n        /* \"#utility.yul\":767:787   */\n      calldataload\n        /* \"#utility.yul\":758:787   */\n      swap1\n      pop\n        /* \"#utility.yul\":796:829   */\n      tag_35\n        /* \"#utility.yul\":823:828   */\n      dup2\n        /* \"#utility.yul\":796:829   */\n      tag_21\n      jump\t// in\n    tag_35:\n        /* \"#utility.yul\":696:835   */\n      swap3\n      swap2\n      pop\n      pop\n      jump\t// out\n        /* \"#utility.yul\":841:1170   */\n    tag_6:\n        /* \"#utility.yul\":900:906   */\n      0x00\n        /* \"#utility.yul\":949:951   */\n      0x20\n        /* \"#utility.yul\":937:946   */\n      dup3\n        /* \"#utility.yul\":928:935   */\n      dup5\n        /* \"#utility.yul\":924:947   */\n      sub\n        /* \"#utility.yul\":920:952   */\n      slt\n        /* \"#utility.yul\":917:1036   */\n      iszero\n      tag_37\n      jumpi\n        /* \"#utility.yul\":955:1034   */\n      tag_38\n      tag_17\n      jump\t// in\n    tag_38:\n        /* \"#utility.yul\":917:1036   */\n    tag_37:\n        /* \"#utility.yul\":1075:1076   */\n      0x00\n        /* \"#utility.yul\":1100:1153   */\n      tag_39\n        /* \"#utility.yul\":1145:1152   */\n      dup5\n        /* \"#utility.yul\":1136:1142   */\n      dup3\n        /* \"#utility.yul\":1125:1134   */\n      dup6\n        /* \"#utility.yul\":1121:1143   */\n      add\n        /* \"#utility.yul\":1100:1153   */\n      tag_22\n      jump\t// in\n    tag_39:\n        /* \"#utility.yul\":1090:1153   */\n      swap2\n      pop\n        /* \"#utility.yul\":1046:1163   */\n      pop\n        /* \"#utility.yul\":841:1170   */\n      swap3\n      swap2\n      pop\n      pop\n      jump\t// out\n        /* \"#utility.yul\":1176:1294   */\n    tag_23:\n        /* \"#utility.yul\":1263:1287   */\n      tag_41\n        /* \"#utility.yul\":1281:1286   */\n      dup2\n        /* \"#utility.yul\":1263:1287   */\n      tag_20\n      jump\t// in\n    tag_41:\n        /* \"#utility.yul\":1258:1261   */\n      dup3\n        /* \"#utility.yul\":1251:1288   */\n      mstore\n        /* \"#utility.yul\":1176:1294   */\n      pop\n      pop\n      jump\t// out\n        /* \"#utility.yul\":1300:1522   */\n    tag_9:\n        /* \"#utility.yul\":1393:1397   */\n      0x00\n        /* \"#utility.yul\":1431:1433   */\n      0x20\n        /* \"#utility.yul\":1420:1429   */\n      dup3\n        /* \"#utility.yul\":1416:1434   */\n      add\n        /* \"#utility.yul\":1408:1434   */\n      swap1\n      pop\n        /* \"#utility.yul\":1444:1515   */\n      tag_43\n        /* \"#utility.yul\":1512:1513   */\n      0x00\n        /* \"#utility.yul\":1501:1510   */\n      dup4\n        /* \"#utility.yul\":1497:1514   */\n      add\n        /* \"#utility.yul\":1488:1494   */\n      dup5\n        /* \"#utility.yul\":1444:1515   */\n      tag_23\n      jump\t// in\n    tag_43:\n        /* \"#utility.yul\":1300:1522   */\n      swap3\n      swap2\n      pop\n      pop\n      jump\t// out\n    stop\n\n    sub_0: assembly {\n            /* \"Wallet.sol\":350:686  contract Wallet {... */\n          mstore(0x40, 0x80)\n            /* \"Wallet.sol\":402:463  constructor(address _owner) {... */\n          callvalue\n          dup1\n          iszero\n          tag_1\n          jumpi\n          0x00\n          dup1\n          revert\n        tag_1:\n          pop\n          mload(0x40)\n          sub(codesize, bytecodeSize)\n          dup1\n          bytecodeSize\n          dup4\n          codecopy\n          dup2\n          dup2\n          add\n          0x40\n          mstore\n          dup2\n          add\n          swap1\n          tag_2\n          swap2\n          swap1\n          tag_3\n          jump\t// in\n        tag_2:\n            /* \"Wallet.sol\":449:455  _owner */\n          dup1\n            /* \"Wallet.sol\":441:446  owner */\n          0x00\n          dup1\n            /* \"Wallet.sol\":441:455  owner = _owner */\n          0x0100\n          exp\n          dup2\n          sload\n          dup2\n          0xffffffffffffffffffffffffffffffffffffffff\n          mul\n          not\n          and\n          swap1\n          dup4\n          0xffffffffffffffffffffffffffffffffffffffff\n          and\n          mul\n          or\n          swap1\n          sstore\n          pop\n            /* \"Wallet.sol\":402:463  constructor(address _owner) {... */\n          pop\n            /* \"Wallet.sol\":350:686  contract Wallet {... */\n          jump(tag_6)\n            /* \"#utility.yul\":88:205   */\n        tag_8:\n            /* \"#utility.yul\":197:198   */\n          0x00\n            /* \"#utility.yul\":194:195   */\n          dup1\n            /* \"#utility.yul\":187:199   */\n          revert\n            /* \"#utility.yul\":334:460   */\n        tag_10:\n            /* \"#utility.yul\":371:378   */\n          0x00\n            /* \"#utility.yul\":411:453   */\n          0xffffffffffffffffffffffffffffffffffffffff\n            /* \"#utility.yul\":404:409   */\n          dup3\n            /* \"#utility.yul\":400:454   */\n          and\n            /* \"#utility.yul\":389:454   */\n          swap1\n          pop\n            /* \"#utility.yul\":334:460   */\n          swap2\n          swap1\n          pop\n          jump\t// out\n            /* \"#utility.yul\":466:562   */\n        tag_11:\n            /* \"#utility.yul\":503:510   */\n          0x00\n            /* \"#utility.yul\":532:556   */\n          tag_20\n            /* \"#utility.yul\":550:555   */\n          dup3\n            /* \"#utility.yul\":532:556   */\n          tag_10\n          jump\t// in\n        tag_20:\n            /* \"#utility.yul\":521:556   */\n          swap1\n          pop\n            /* \"#utility.yul\":466:562   */\n          swap2\n          swap1\n          pop\n          jump\t// out\n            /* \"#utility.yul\":568:690   */\n        tag_12:\n            /* \"#utility.yul\":641:665   */\n          tag_22\n            /* \"#utility.yul\":659:664   */\n          dup2\n            /* \"#utility.yul\":641:665   */\n          tag_11\n          jump\t// in\n        tag_22:\n            /* \"#utility.yul\":634:639   */\n          dup2\n            /* \"#utility.yul\":631:666   */\n          eq\n            /* \"#utility.yul\":621:684   */\n          tag_23\n          jumpi\n            /* \"#utility.yul\":680:681   */\n          0x00\n            /* \"#utility.yul\":677:678   */\n          dup1\n            /* \"#utility.yul\":670:682   */\n          revert\n            /* \"#utility.yul\":621:684   */\n        tag_23:\n            /* \"#utility.yul\":568:690   */\n          pop\n          jump\t// out\n            /* \"#utility.yul\":696:839   */\n        tag_13:\n            /* \"#utility.yul\":753:758   */\n          0x00\n            /* \"#utility.yul\":784:790   */\n          dup2\n            /* \"#utility.yul\":778:791   */\n          mload\n            /* \"#utility.yul\":769:791   */\n          swap1\n          pop\n            /* \"#utility.yul\":800:833   */\n          tag_25\n            /* \"#utility.yul\":827:832   */\n          dup2\n            /* \"#utility.yul\":800:833   */\n          tag_12\n          jump\t// in\n        tag_25:\n            /* \"#utility.yul\":696:839   */\n          swap3\n          swap2\n          pop\n          pop\n          jump\t// out\n            /* \"#utility.yul\":845:1196   */\n        tag_3:\n            /* \"#utility.yul\":915:921   */\n          0x00\n            /* \"#utility.yul\":964:966   */\n          0x20\n            /* \"#utility.yul\":952:961   */\n          dup3\n            /* \"#utility.yul\":943:950   */\n          dup5\n            /* \"#utility.yul\":939:962   */\n          sub\n            /* \"#utility.yul\":935:967   */\n          slt\n            /* \"#utility.yul\":932:1051   */\n          iszero\n          tag_27\n          jumpi\n            /* \"#utility.yul\":970:1049   */\n          tag_28\n          tag_8\n          jump\t// in\n        tag_28:\n            /* \"#utility.yul\":932:1051   */\n        tag_27:\n            /* \"#utility.yul\":1090:1091   */\n          0x00\n            /* \"#utility.yul\":1115:1179   */\n          tag_29\n            /* \"#utility.yul\":1171:1178   */\n          dup5\n            /* \"#utility.yul\":1162:1168   */\n          dup3\n            /* \"#utility.yul\":1151:1160   */\n          dup6\n            /* \"#utility.yul\":1147:1169   */\n          add\n            /* \"#utility.yul\":1115:1179   */\n          tag_13\n          jump\t// in\n        tag_29:\n            /* \"#utility.yul\":1105:1179   */\n          swap2\n          pop\n            /* \"#utility.yul\":1061:1189   */\n          pop\n            /* \"#utility.yul\":845:1196   */\n          swap3\n          swap2\n          pop\n          pop\n          jump\t// out\n            /* \"Wallet.sol\":350:686  contract Wallet {... */\n        tag_6:\n          dataSize(sub_0)\n          dup1\n          dataOffset(sub_0)\n          0x00\n          codecopy\n          0x00\n          return\n        stop\n\n        sub_0: assembly {\n                /* \"Wallet.sol\":350:686  contract Wallet {... */\n              mstore(0x40, 0x80)\n              jumpi(tag_1, lt(calldatasize, 0x04))\n              shr(0xe0, calldataload(0x00))\n              dup1\n              0x8da5cb5b\n              eq\n              tag_3\n              jumpi\n              dup1\n              0xa9059cbb\n              eq\n              tag_4\n              jumpi\n              jump(tag_2)\n            tag_1:\n              jumpi(tag_2, calldatasize)\n              stop\n            tag_2:\n              0x00\n              dup1\n              revert\n                /* \"Wallet.sol\":373:393  address public owner */\n            tag_3:\n              callvalue\n              dup1\n              iszero\n              tag_7\n              jumpi\n              0x00\n              dup1\n              revert\n            tag_7:\n              pop\n              tag_8\n              tag_9\n              jump\t// in\n            tag_8:\n              mload(0x40)\n              tag_10\n              swap2\n              swap1\n              tag_11\n              jump\t// in\n            tag_10:\n              mload(0x40)\n              dup1\n              swap2\n              sub\n              swap1\n              return\n                /* \"Wallet.sol\":508:683  function transfer(address payable to, uint256 amount) public {... */\n            tag_4:\n              callvalue\n              dup1\n              iszero\n              tag_12\n              jumpi\n              0x00\n              dup1\n              revert\n            tag_12:\n              pop\n              tag_13\n              0x04\n              dup1\n              calldatasize\n              sub\n              dup2\n              add\n              swap1\n              tag_14\n              swap2\n              swap1\n              tag_15\n              jump\t// in\n            tag_14:\n              tag_16\n              jump\t// in\n            tag_13:\n              stop\n                /* \"Wallet.sol\":373:393  address public owner */\n            tag_9:\n              0x00\n              dup1\n              sload\n              swap1\n              0x0100\n              exp\n              swap1\n              div\n              0xffffffffffffffffffffffffffffffffffffffff\n              and\n              dup2\n              jump\t// out\n                /* \"Wallet.sol\":508:683  function transfer(address payable to, uint256 amount) public {... */\n            tag_16:\n                /* \"Wallet.sol\":602:607  owner */\n              0x00\n              dup1\n              sload\n              swap1\n              0x0100\n              exp\n              swap1\n              div\n              0xffffffffffffffffffffffffffffffffffffffff\n              and\n                /* \"Wallet.sol\":588:607  msg.sender == owner */\n              0xffffffffffffffffffffffffffffffffffffffff\n              and\n                /* \"Wallet.sol\":588:598  msg.sender */\n              caller\n                /* \"Wallet.sol\":588:607  msg.sender == owner */\n              0xffffffffffffffffffffffffffffffffffffffff\n              and\n              eq\n                /* \"Wallet.sol\":580:645  require(msg.sender == owner, \"Only the owner can transfer funds\") */\n              tag_18\n              jumpi\n              mload(0x40)\n              0x08c379a000000000000000000000000000000000000000000000000000000000\n              dup2\n              mstore\n              0x04\n              add\n              tag_19\n              swap1\n              tag_20\n              jump\t// in\n            tag_19:\n              mload(0x40)\n              dup1\n              swap2\n              sub\n              swap1\n              revert\n            tag_18:\n                /* \"Wallet.sol\":656:658  to */\n              dup2\n                /* \"Wallet.sol\":656:667  to.transfer */\n              0xffffffffffffffffffffffffffffffffffffffff\n              and\n                /* \"Wallet.sol\":656:675  to.transfer(amount) */\n              0x08fc\n                /* \"Wallet.sol\":668:674  amount */\n              dup3\n                /* \"Wallet.sol\":656:675  to.transfer(amount) */\n              swap1\n              dup2\n              iszero\n              mul\n              swap1\n              mload(0x40)\n              0x00\n              mload(0x40)\n              dup1\n              dup4\n              sub\n              dup2\n              dup6\n              dup9\n              dup9\n              call\n              swap4\n              pop\n              pop\n              pop\n              pop\n              iszero\n              dup1\n              iszero\n              tag_22\n              jumpi\n              returndatasize\n              0x00\n              dup1\n              returndatacopy\n              revert(0x00, returndatasize)\n            tag_22:\n              pop\n                /* \"Wallet.sol\":508:683  function transfer(address payable to, uint256 amount) public {... */\n              pop\n              pop\n              jump\t// out\n                /* \"#utility.yul\":7:133   */\n            tag_23:\n                /* \"#utility.yul\":44:51   */\n              0x00\n                /* \"#utility.yul\":84:126   */\n              0xffffffffffffffffffffffffffffffffffffffff\n                /* \"#utility.yul\":77:82   */\n              dup3\n                /* \"#utility.yul\":73:127   */\n              and\n                /* \"#utility.yul\":62:127   */\n              swap1\n              pop\n                /* \"#utility.yul\":7:133   */\n              swap2\n              swap1\n              pop\n              jump\t// out\n                /* \"#utility.yul\":139:235   */\n            tag_24:\n                /* \"#utility.yul\":176:183   */\n              0x00\n                /* \"#utility.yul\":205:229   */\n              tag_41\n                /* \"#utility.yul\":223:228   */\n              dup3\n                /* \"#utility.yul\":205:229   */\n              tag_23\n              jump\t// in\n            tag_41:\n                /* \"#utility.yul\":194:229   */\n              swap1\n              pop\n                /* \"#utility.yul\":139:235   */\n              swap2\n              swap1\n              pop\n              jump\t// out\n                /* \"#utility.yul\":241:359   */\n            tag_25:\n                /* \"#utility.yul\":328:352   */\n              tag_43\n                /* \"#utility.yul\":346:351   */\n              dup2\n                /* \"#utility.yul\":328:352   */\n              tag_24\n              jump\t// in\n            tag_43:\n                /* \"#utility.yul\":323:326   */\n              dup3\n                /* \"#utility.yul\":316:353   */\n              mstore\n                /* \"#utility.yul\":241:359   */\n              pop\n              pop\n              jump\t// out\n                /* \"#utility.yul\":365:587   */\n            tag_11:\n                /* \"#utility.yul\":458:462   */\n              0x00\n                /* \"#utility.yul\":496:498   */\n              0x20\n                /* \"#utility.yul\":485:494   */\n              dup3\n                /* \"#utility.yul\":481:499   */\n              add\n                /* \"#utility.yul\":473:499   */\n              swap1\n              pop\n                /* \"#utility.yul\":509:580   */\n              tag_45\n                /* \"#utility.yul\":577:578   */\n              0x00\n                /* \"#utility.yul\":566:575   */\n              dup4\n                /* \"#utility.yul\":562:579   */\n              add\n                /* \"#utility.yul\":553:559   */\n              dup5\n                /* \"#utility.yul\":509:580   */\n              tag_25\n              jump\t// in\n            tag_45:\n                /* \"#utility.yul\":365:587   */\n              swap3\n              swap2\n              pop\n              pop\n              jump\t// out\n                /* \"#utility.yul\":674:791   */\n            tag_27:\n                /* \"#utility.yul\":783:784   */\n              0x00\n                /* \"#utility.yul\":780:781   */\n              dup1\n                /* \"#utility.yul\":773:785   */\n              revert\n                /* \"#utility.yul\":920:1024   */\n            tag_29:\n                /* \"#utility.yul\":965:972   */\n              0x00\n                /* \"#utility.yul\":994:1018   */\n              tag_50\n                /* \"#utility.yul\":1012:1017   */\n              dup3\n                /* \"#utility.yul\":994:1018   */\n              tag_23\n              jump\t// in\n            tag_50:\n                /* \"#utility.yul\":983:1018   */\n              swap1\n              pop\n                /* \"#utility.yul\":920:1024   */\n              swap2\n              swap1\n              pop\n              jump\t// out\n                /* \"#utility.yul\":1030:1168   */\n            tag_30:\n                /* \"#utility.yul\":1111:1143   */\n              tag_52\n                /* \"#utility.yul\":1137:1142   */\n              dup2\n                /* \"#utility.yul\":1111:1143   */\n              tag_29\n              jump\t// in\n            tag_52:\n                /* \"#utility.yul\":1104:1109   */\n              dup2\n                /* \"#utility.yul\":1101:1144   */\n              eq\n                /* \"#utility.yul\":1091:1162   */\n              tag_53\n              jumpi\n                /* \"#utility.yul\":1158:1159   */\n              0x00\n                /* \"#utility.yul\":1155:1156   */\n              dup1\n                /* \"#utility.yul\":1148:1160   */\n              revert\n                /* \"#utility.yul\":1091:1162   */\n            tag_53:\n                /* \"#utility.yul\":1030:1168   */\n              pop\n              jump\t// out\n                /* \"#utility.yul\":1174:1329   */\n            tag_31:\n                /* \"#utility.yul\":1228:1233   */\n              0x00\n                /* \"#utility.yul\":1266:1272   */\n              dup2\n                /* \"#utility.yul\":1253:1273   */\n              calldataload\n                /* \"#utility.yul\":1244:1273   */\n              swap1\n              pop\n                /* \"#utility.yul\":1282:1323   */\n              tag_55\n                /* \"#utility.yul\":1317:1322   */\n              dup2\n                /* \"#utility.yul\":1282:1323   */\n              tag_30\n              jump\t// in\n            tag_55:\n                /* \"#utility.yul\":1174:1329   */\n              swap3\n              swap2\n              pop\n              pop\n              jump\t// out\n                /* \"#utility.yul\":1335:1412   */\n            tag_32:\n                /* \"#utility.yul\":1372:1379   */\n              0x00\n                /* \"#utility.yul\":1401:1406   */\n              dup2\n                /* \"#utility.yul\":1390:1406   */\n              swap1\n              pop\n                /* \"#utility.yul\":1335:1412   */\n              swap2\n              swap1\n              pop\n              jump\t// out\n                /* \"#utility.yul\":1418:1540   */\n            tag_33:\n                /* \"#utility.yul\":1491:1515   */\n              tag_58\n                /* \"#utility.yul\":1509:1514   */\n              dup2\n                /* \"#utility.yul\":1491:1515   */\n              tag_32\n              jump\t// in\n            tag_58:\n                /* \"#utility.yul\":1484:1489   */\n              dup2\n                /* \"#utility.yul\":1481:1516   */\n              eq\n                /* \"#utility.yul\":1471:1534   */\n              tag_59\n              jumpi\n                /* \"#utility.yul\":1530:1531   */\n              0x00\n                /* \"#utility.yul\":1527:1528   */\n              dup1\n                /* \"#utility.yul\":1520:1532   */\n              revert\n                /* \"#utility.yul\":1471:1534   */\n            tag_59:\n                /* \"#utility.yul\":1418:1540   */\n              pop\n              jump\t// out\n                /* \"#utility.yul\":1546:1685   */\n            tag_34:\n                /* \"#utility.yul\":1592:1597   */\n              0x00\n                /* \"#utility.yul\":1630:1636   */\n              dup2\n                /* \"#utility.yul\":1617:1637   */\n              calldataload\n                /* \"#utility.yul\":1608:1637   */\n              swap1\n              pop\n                /* \"#utility.yul\":1646:1679   */\n              tag_61\n                /* \"#utility.yul\":1673:1678   */\n              dup2\n                /* \"#utility.yul\":1646:1679   */\n              tag_33\n              jump\t// in\n            tag_61:\n                /* \"#utility.yul\":1546:1685   */\n              swap3\n              swap2\n              pop\n              pop\n              jump\t// out\n                /* \"#utility.yul\":1691:2181   */\n            tag_15:\n                /* \"#utility.yul\":1767:1773   */\n              0x00\n                /* \"#utility.yul\":1775:1781   */\n              dup1\n                /* \"#utility.yul\":1824:1826   */\n              0x40\n                /* \"#utility.yul\":1812:1821   */\n              dup4\n                /* \"#utility.yul\":1803:1810   */\n              dup6\n                /* \"#utility.yul\":1799:1822   */\n              sub\n                /* \"#utility.yul\":1795:1827   */\n              slt\n                /* \"#utility.yul\":1792:1911   */\n              iszero\n              tag_63\n              jumpi\n                /* \"#utility.yul\":1830:1909   */\n              tag_64\n              tag_27\n              jump\t// in\n            tag_64:\n                /* \"#utility.yul\":1792:1911   */\n            tag_63:\n                /* \"#utility.yul\":1950:1951   */\n              0x00\n                /* \"#utility.yul\":1975:2036   */\n              tag_65\n                /* \"#utility.yul\":2028:2035   */\n              dup6\n                /* \"#utility.yul\":2019:2025   */\n              dup3\n                /* \"#utility.yul\":2008:2017   */\n              dup7\n                /* \"#utility.yul\":2004:2026   */\n              add\n                /* \"#utility.yul\":1975:2036   */\n              tag_31\n              jump\t// in\n            tag_65:\n                /* \"#utility.yul\":1965:2036   */\n              swap3\n              pop\n                /* \"#utility.yul\":1921:2046   */\n              pop\n                /* \"#utility.yul\":2085:2087   */\n              0x20\n                /* \"#utility.yul\":2111:2164   */\n              tag_66\n                /* \"#utility.yul\":2156:2163   */\n              dup6\n                /* \"#utility.yul\":2147:2153   */\n              dup3\n                /* \"#utility.yul\":2136:2145   */\n              dup7\n                /* \"#utility.yul\":2132:2154   */\n              add\n                /* \"#utility.yul\":2111:2164   */\n              tag_34\n              jump\t// in\n            tag_66:\n                /* \"#utility.yul\":2101:2164   */\n              swap2\n              pop\n                /* \"#utility.yul\":2056:2174   */\n              pop\n                /* \"#utility.yul\":1691:2181   */\n              swap3\n              pop\n              swap3\n              swap1\n              pop\n              jump\t// out\n                /* \"#utility.yul\":2187:2356   */\n            tag_35:\n                /* \"#utility.yul\":2271:2282   */\n              0x00\n                /* \"#utility.yul\":2305:2311   */\n              dup3\n                /* \"#utility.yul\":2300:2303   */\n              dup3\n                /* \"#utility.yul\":2293:2312   */\n              mstore\n                /* \"#utility.yul\":2345:2349   */\n              0x20\n                /* \"#utility.yul\":2340:2343   */\n              dup3\n                /* \"#utility.yul\":2336:2350   */\n              add\n                /* \"#utility.yul\":2321:2350   */\n              swap1\n              pop\n                /* \"#utility.yul\":2187:2356   */\n              swap3\n              swap2\n              pop\n              pop\n              jump\t// out\n                /* \"#utility.yul\":2362:2582   */\n            tag_36:\n                /* \"#utility.yul\":2502:2536   */\n              0x4f6e6c7920746865206f776e65722063616e207472616e736665722066756e64\n                /* \"#utility.yul\":2498:2499   */\n              0x00\n                /* \"#utility.yul\":2490:2496   */\n              dup3\n                /* \"#utility.yul\":2486:2500   */\n              add\n                /* \"#utility.yul\":2479:2537   */\n              mstore\n                /* \"#utility.yul\":2571:2574   */\n              0x7300000000000000000000000000000000000000000000000000000000000000\n                /* \"#utility.yul\":2566:2568   */\n              0x20\n                /* \"#utility.yul\":2558:2564   */\n              dup3\n                /* \"#utility.yul\":2554:2569   */\n              add\n                /* \"#utility.yul\":2547:2575   */\n              mstore\n                /* \"#utility.yul\":2362:2582   */\n              pop\n              jump\t// out\n                /* \"#utility.yul\":2588:2954   */\n            tag_37:\n                /* \"#utility.yul\":2730:2733   */\n              0x00\n                /* \"#utility.yul\":2751:2818   */\n              tag_70\n                /* \"#utility.yul\":2815:2817   */\n              0x21\n                /* \"#utility.yul\":2810:2813   */\n              dup4\n                /* \"#utility.yul\":2751:2818   */\n              tag_35\n              jump\t// in\n            tag_70:\n                /* \"#utility.yul\":2744:2818   */\n              swap2\n              pop\n                /* \"#utility.yul\":2827:2920   */\n              tag_71\n                /* \"#utility.yul\":2916:2919   */\n              dup3\n                /* \"#utility.yul\":2827:2920   */\n              tag_36\n              jump\t// in\n            tag_71:\n                /* \"#utility.yul\":2945:2947   */\n              0x40\n                /* \"#utility.yul\":2940:2943   */\n              dup3\n                /* \"#utility.yul\":2936:2948   */\n              add\n                /* \"#utility.yul\":2929:2948   */\n              swap1\n              pop\n                /* \"#utility.yul\":2588:2954   */\n              swap2\n              swap1\n              pop\n              jump\t// out\n                /* \"#utility.yul\":2960:3379   */\n            tag_20:\n                /* \"#utility.yul\":3126:3130   */\n              0x00\n                /* \"#utility.yul\":3164:3166   */\n              0x20\n                /* \"#utility.yul\":3153:3162   */\n              dup3\n                /* \"#utility.yul\":3149:3167   */\n              add\n                /* \"#utility.yul\":3141:3167   */\n              swap1\n              pop\n                /* \"#utility.yul\":3213:3222   */\n              dup2\n                /* \"#utility.yul\":3207:3211   */\n              dup2\n                /* \"#utility.yul\":3203:3223   */\n              sub\n                /* \"#utility.yul\":3199:3200   */\n              0x00\n                /* \"#utility.yul\":3188:3197   */\n              dup4\n                /* \"#utility.yul\":3184:3201   */\n              add\n                /* \"#utility.yul\":3177:3224   */\n              mstore\n                /* \"#utility.yul\":3241:3372   */\n              tag_73\n                /* \"#utility.yul\":3367:3371   */\n              dup2\n                /* \"#utility.yul\":3241:3372   */\n              tag_37\n              jump\t// in\n            tag_73:\n                /* \"#utility.yul\":3233:3372   */\n              swap1\n              pop\n                /* \"#utility.yul\":2960:3379   */\n              swap2\n              swap1\n              pop\n              jump\t// out\n\n            auxdata: 0xa26469706673582212208680909d0fdfd7bbb7a8f5a56d59bc7662c6cbe4e64a8012a512ed134092c69264736f6c63430008180033\n        }\n    }\n\n    auxdata: 0xa264697066735822122093f8698ffec0afcde4f195bf04c9b223201f3f5b82ccd59aa36bf7035e17ae8764736f6c63430008180033\n}\n",
				"bytecode": {
					"linkReferences": {},
					"object": "608060405234801561001057600080fd5b50610665806100206000396000f3fe608060405234801561001057600080fd5b506004361061002b5760003560e01c8063b054a9e814610030575b600080fd5b61004a60048036038101906100459190610149565b610060565b6040516100579190610185565b60405180910390f35b60008082604051610070906100d9565b61007a9190610185565b604051809103906000f080158015610096573d6000803e3d6000fd5b5090507f234cf33b32239d80b54161e2396c80cdeaf4d34161300e54d8bc01eb7c0ea553816040516100c89190610185565b60405180910390a180915050919050565b61048f806101a183390190565b600080fd5b600073ffffffffffffffffffffffffffffffffffffffff82169050919050565b6000610116826100eb565b9050919050565b6101268161010b565b811461013157600080fd5b50565b6000813590506101438161011d565b92915050565b60006020828403121561015f5761015e6100e6565b5b600061016d84828501610134565b91505092915050565b61017f8161010b565b82525050565b600060208201905061019a6000830184610176565b9291505056fe608060405234801561001057600080fd5b5060405161048f38038061048f833981810160405281019061003291906100db565b806000806101000a81548173ffffffffffffffffffffffffffffffffffffffff021916908373ffffffffffffffffffffffffffffffffffffffff16021790555050610108565b600080fd5b600073ffffffffffffffffffffffffffffffffffffffff82169050919050565b60006100a88261007d565b9050919050565b6100b88161009d565b81146100c357600080fd5b50565b6000815190506100d5816100af565b92915050565b6000602082840312156100f1576100f0610078565b5b60006100ff848285016100c6565b91505092915050565b610378806101176000396000f3fe60806040526004361061002d5760003560e01c80638da5cb5b14610039578063a9059cbb1461006457610034565b3661003457005b600080fd5b34801561004557600080fd5b5061004e61008d565b60405161005b91906101cb565b60405180910390f35b34801561007057600080fd5b5061008b6004803603810190610086919061025f565b6100b1565b005b60008054906101000a900473ffffffffffffffffffffffffffffffffffffffff1681565b60008054906101000a900473ffffffffffffffffffffffffffffffffffffffff1673ffffffffffffffffffffffffffffffffffffffff163373ffffffffffffffffffffffffffffffffffffffff161461013f576040517f08c379a000000000000000000000000000000000000000000000000000000000815260040161013690610322565b60405180910390fd5b8173ffffffffffffffffffffffffffffffffffffffff166108fc829081150290604051600060405180830381858888f19350505050158015610185573d6000803e3d6000fd5b505050565b600073ffffffffffffffffffffffffffffffffffffffff82169050919050565b60006101b58261018a565b9050919050565b6101c5816101aa565b82525050565b60006020820190506101e060008301846101bc565b92915050565b600080fd5b60006101f68261018a565b9050919050565b610206816101eb565b811461021157600080fd5b50565b600081359050610223816101fd565b92915050565b6000819050919050565b61023c81610229565b811461024757600080fd5b50565b60008135905061025981610233565b92915050565b60008060408385031215610276576102756101e6565b5b600061028485828601610214565b92505060206102958582860161024a565b9150509250929050565b600082825260208201905092915050565b7f4f6e6c7920746865206f776e65722063616e207472616e736665722066756e6460008201527f7300000000000000000000000000000000000000000000000000000000000000602082015250565b600061030c60218361029f565b9150610317826102b0565b604082019050919050565b6000602082019050818103600083015261033b816102ff565b905091905056fea26469706673582212208680909d0fdfd7bbb7a8f5a56d59bc7662c6cbe4e64a8012a512ed134092c69264736f6c63430008180033a264697066735822122093f8698ffec0afcde4f195bf04c9b223201f3f5b82ccd59aa36bf7035e17ae8764736f6c63430008180033",
					"opcodes": "PUSH1 0x80 PUSH1 0x40 MSTORE CALLVALUE DUP1 ISZERO PUSH2 0x10 JUMPI PUSH1 0x0 DUP1 REVERT JUMPDEST POP PUSH2 0x665 DUP1 PUSH2 0x20 PUSH1 0x0 CODECOPY PUSH1 0x0 RETURN INVALID PUSH1 0x80 PUSH1 0x40 MSTORE CALLVALUE DUP1 ISZERO PUSH2 0x10 JUMPI PUSH1 0x0 DUP1 REVERT JUMPDEST POP PUSH1 0x4 CALLDATASIZE LT PUSH2 0x2B JUMPI PUSH1 0x0 CALLDATALOAD PUSH1 0xE0 SHR DUP1 PUSH4 0xB054A9E8 EQ PUSH2 0x30 JUMPI JUMPDEST PUSH1 0x0 DUP1 REVERT JUMPDEST PUSH2 0x4A PUSH1 0x4 DUP1 CALLDATASIZE SUB DUP2 ADD SWAP1 PUSH2 0x45 SWAP2 SWAP1 PUSH2 0x149 JUMP JUMPDEST PUSH2 0x60 JUMP JUMPDEST PUSH1 0x40 MLOAD PUSH2 0x57 SWAP2 SWAP1 PUSH2 0x185 JUMP JUMPDEST PUSH1 0x40 MLOAD DUP1 SWAP2 SUB SWAP1 RETURN JUMPDEST PUSH1 0x0 DUP1 DUP3 PUSH1 0x40 MLOAD PUSH2 0x70 SWAP1 PUSH2 0xD9 JUMP JUMPDEST PUSH2 0x7A SWAP2 SWAP1 PUSH2 0x185 JUMP JUMPDEST PUSH1 0x40 MLOAD DUP1 SWAP2 SUB SWAP1 PUSH1 0x0 CREATE DUP1 ISZERO DUP1 ISZERO PUSH2 0x96 JUMPI RETURNDATASIZE PUSH1 0x0 DUP1 RETURNDATACOPY RETURNDATASIZE PUSH1 0x0 REVERT JUMPDEST POP SWAP1 POP PUSH32 0x234CF33B32239D80B54161E2396C80CDEAF4D34161300E54D8BC01EB7C0EA553 DUP2 PUSH1 0x40 MLOAD PUSH2 0xC8 SWAP2 SWAP1 PUSH2 0x185 JUMP JUMPDEST PUSH1 0x40 MLOAD DUP1 SWAP2 SUB SWAP1 LOG1 DUP1 SWAP2 POP POP SWAP2 SWAP1 POP JUMP JUMPDEST PUSH2 0x48F DUP1 PUSH2 0x1A1 DUP4 CODECOPY ADD SWAP1 JUMP JUMPDEST PUSH1 0x0 DUP1 REVERT JUMPDEST PUSH1 0x0 PUSH20 0xFFFFFFFFFFFFFFFFFFFFFFFFFFFFFFFFFFFFFFFF DUP3 AND SWAP1 POP SWAP2 SWAP1 POP JUMP JUMPDEST PUSH1 0x0 PUSH2 0x116 DUP3 PUSH2 0xEB JUMP JUMPDEST SWAP1 POP SWAP2 SWAP1 POP JUMP JUMPDEST PUSH2 0x126 DUP2 PUSH2 0x10B JUMP JUMPDEST DUP2 EQ PUSH2 0x131 JUMPI PUSH1 0x0 DUP1 REVERT JUMPDEST POP JUMP JUMPDEST PUSH1 0x0 DUP2 CALLDATALOAD SWAP1 POP PUSH2 0x143 DUP2 PUSH2 0x11D JUMP JUMPDEST SWAP3 SWAP2 POP POP JUMP JUMPDEST PUSH1 0x0 PUSH1 0x20 DUP3 DUP5 SUB SLT ISZERO PUSH2 0x15F JUMPI PUSH2 0x15E PUSH2 0xE6 JUMP JUMPDEST JUMPDEST PUSH1 0x0 PUSH2 0x16D DUP5 DUP3 DUP6 ADD PUSH2 0x134 JUMP JUMPDEST SWAP2 POP POP SWAP3 SWAP2 POP POP JUMP JUMPDEST PUSH2 0x17F DUP2 PUSH2 0x10B JUMP JUMPDEST DUP3 MSTORE POP POP JUMP JUMPDEST PUSH1 0x0 PUSH1 0x20 DUP3 ADD SWAP1 POP PUSH2 0x19A PUSH1 0x0 DUP4 ADD DUP5 PUSH2 0x176 JUMP JUMPDEST SWAP3 SWAP2 POP POP JUMP INVALID PUSH1 0x80 PUSH1 0x40 MSTORE CALLVALUE DUP1 ISZERO PUSH2 0x10 JUMPI PUSH1 0x0 DUP1 REVERT JUMPDEST POP PUSH1 0x40 MLOAD PUSH2 0x48F CODESIZE SUB DUP1 PUSH2 0x48F DUP4 CODECOPY DUP2 DUP2 ADD PUSH1 0x40 MSTORE DUP2 ADD SWAP1 PUSH2 0x32 SWAP2 SWAP1 PUSH2 0xDB JUMP JUMPDEST DUP1 PUSH1 0x0 DUP1 PUSH2 0x100 EXP DUP2 SLOAD DUP2 PUSH20 0xFFFFFFFFFFFFFFFFFFFFFFFFFFFFFFFFFFFFFFFF MUL NOT AND SWAP1 DUP4 PUSH20 0xFFFFFFFFFFFFFFFFFFFFFFFFFFFFFFFFFFFFFFFF AND MUL OR SWAP1 SSTORE POP POP PUSH2 0x108 JUMP JUMPDEST PUSH1 0x0 DUP1 REVERT JUMPDEST PUSH1 0x0 PUSH20 0xFFFFFFFFFFFFFFFFFFFFFFFFFFFFFFFFFFFFFFFF DUP3 AND SWAP1 POP SWAP2 SWAP1 POP JUMP JUMPDEST PUSH1 0x0 PUSH2 0xA8 DUP3 PUSH2 0x7D JUMP JUMPDEST SWAP1 POP SWAP2 SWAP1 POP JUMP JUMPDEST PUSH2 0xB8 DUP2 PUSH2 0x9D JUMP JUMPDEST DUP2 EQ PUSH2 0xC3 JUMPI PUSH1 0x0 DUP1 REVERT JUMPDEST POP JUMP JUMPDEST PUSH1 0x0 DUP2 MLOAD SWAP1 POP PUSH2 0xD5 DUP2 PUSH2 0xAF JUMP JUMPDEST SWAP3 SWAP2 POP POP JUMP JUMPDEST PUSH1 0x0 PUSH1 0x20 DUP3 DUP5 SUB SLT ISZERO PUSH2 0xF1 JUMPI PUSH2 0xF0 PUSH2 0x78 JUMP JUMPDEST JUMPDEST PUSH1 0x0 PUSH2 0xFF DUP5 DUP3 DUP6 ADD PUSH2 0xC6 JUMP JUMPDEST SWAP2 POP POP SWAP3 SWAP2 POP POP JUMP JUMPDEST PUSH2 0x378 DUP1 PUSH2 0x117 PUSH1 0x0 CODECOPY PUSH1 0x0 RETURN INVALID PUSH1 0x80 PUSH1 0x40 MSTORE PUSH1 0x4 CALLDATASIZE LT PUSH2 0x2D JUMPI PUSH1 0x0 CALLDATALOAD PUSH1 0xE0 SHR DUP1 PUSH4 0x8DA5CB5B EQ PUSH2 0x39 JUMPI DUP1 PUSH4 0xA9059CBB EQ PUSH2 0x64 JUMPI PUSH2 0x34 JUMP JUMPDEST CALLDATASIZE PUSH2 0x34 JUMPI STOP JUMPDEST PUSH1 0x0 DUP1 REVERT JUMPDEST CALLVALUE DUP1 ISZERO PUSH2 0x45 JUMPI PUSH1 0x0 DUP1 REVERT JUMPDEST POP PUSH2 0x4E PUSH2 0x8D JUMP JUMPDEST PUSH1 0x40 MLOAD PUSH2 0x5B SWAP2 SWAP1 PUSH2 0x1CB JUMP JUMPDEST PUSH1 0x40 MLOAD DUP1 SWAP2 SUB SWAP1 RETURN JUMPDEST CALLVALUE DUP1 ISZERO PUSH2 0x70 JUMPI PUSH1 0x0 DUP1 REVERT JUMPDEST POP PUSH2 0x8B PUSH1 0x4 DUP1 CALLDATASIZE SUB DUP2 ADD SWAP1 PUSH2 0x86 SWAP2 SWAP1 PUSH2 0x25F JUMP JUMPDEST PUSH2 0xB1 JUMP JUMPDEST STOP JUMPDEST PUSH1 0x0 DUP1 SLOAD SWAP1 PUSH2 0x100 EXP SWAP1 DIV PUSH20 0xFFFFFFFFFFFFFFFFFFFFFFFFFFFFFFFFFFFFFFFF AND DUP2 JUMP JUMPDEST PUSH1 0x0 DUP1 SLOAD SWAP1 PUSH2 0x100 EXP SWAP1 DIV PUSH20 0xFFFFFFFFFFFFFFFFFFFFFFFFFFFFFFFFFFFFFFFF AND PUSH20 0xFFFFFFFFFFFFFFFFFFFFFFFFFFFFFFFFFFFFFFFF AND CALLER PUSH20 0xFFFFFFFFFFFFFFFFFFFFFFFFFFFFFFFFFFFFFFFF AND EQ PUSH2 0x13F JUMPI PUSH1 0x40 MLOAD PUSH32 0x8C379A000000000000000000000000000000000000000000000000000000000 DUP2 MSTORE PUSH1 0x4 ADD PUSH2 0x136 SWAP1 PUSH2 0x322 JUMP JUMPDEST PUSH1 0x40 MLOAD DUP1 SWAP2 SUB SWAP1 REVERT JUMPDEST DUP2 PUSH20 0xFFFFFFFFFFFFFFFFFFFFFFFFFFFFFFFFFFFFFFFF AND PUSH2 0x8FC DUP3 SWAP1 DUP2 ISZERO MUL SWAP1 PUSH1 0x40 MLOAD PUSH1 0x0 PUSH1 0x40 MLOAD DUP1 DUP4 SUB DUP2 DUP6 DUP9 DUP9 CALL SWAP4 POP POP POP POP ISZERO DUP1 ISZERO PUSH2 0x185 JUMPI RETURNDATASIZE PUSH1 0x0 DUP1 RETURNDATACOPY RETURNDATASIZE PUSH1 0x0 REVERT JUMPDEST POP POP POP JUMP JUMPDEST PUSH1 0x0 PUSH20 0xFFFFFFFFFFFFFFFFFFFFFFFFFFFFFFFFFFFFFFFF DUP3 AND SWAP1 POP SWAP2 SWAP1 POP JUMP JUMPDEST PUSH1 0x0 PUSH2 0x1B5 DUP3 PUSH2 0x18A JUMP JUMPDEST SWAP1 POP SWAP2 SWAP1 POP JUMP JUMPDEST PUSH2 0x1C5 DUP2 PUSH2 0x1AA JUMP JUMPDEST DUP3 MSTORE POP POP JUMP JUMPDEST PUSH1 0x0 PUSH1 0x20 DUP3 ADD SWAP1 POP PUSH2 0x1E0 PUSH1 0x0 DUP4 ADD DUP5 PUSH2 0x1BC JUMP JUMPDEST SWAP3 SWAP2 POP POP JUMP JUMPDEST PUSH1 0x0 DUP1 REVERT JUMPDEST PUSH1 0x0 PUSH2 0x1F6 DUP3 PUSH2 0x18A JUMP JUMPDEST SWAP1 POP SWAP2 SWAP1 POP JUMP JUMPDEST PUSH2 0x206 DUP2 PUSH2 0x1EB JUMP JUMPDEST DUP2 EQ PUSH2 0x211 JUMPI PUSH1 0x0 DUP1 REVERT JUMPDEST POP JUMP JUMPDEST PUSH1 0x0 DUP2 CALLDATALOAD SWAP1 POP PUSH2 0x223 DUP2 PUSH2 0x1FD JUMP JUMPDEST SWAP3 SWAP2 POP POP JUMP JUMPDEST PUSH1 0x0 DUP2 SWAP1 POP SWAP2 SWAP1 POP JUMP JUMPDEST PUSH2 0x23C DUP2 PUSH2 0x229 JUMP JUMPDEST DUP2 EQ PUSH2 0x247 JUMPI PUSH1 0x0 DUP1 REVERT JUMPDEST POP JUMP JUMPDEST PUSH1 0x0 DUP2 CALLDATALOAD SWAP1 POP PUSH2 0x259 DUP2 PUSH2 0x233 JUMP JUMPDEST SWAP3 SWAP2 POP POP JUMP JUMPDEST PUSH1 0x0 DUP1 PUSH1 0x40 DUP4 DUP6 SUB SLT ISZERO PUSH2 0x276 JUMPI PUSH2 0x275 PUSH2 0x1E6 JUMP JUMPDEST JUMPDEST PUSH1 0x0 PUSH2 0x284 DUP6 DUP3 DUP7 ADD PUSH2 0x214 JUMP JUMPDEST SWAP3 POP POP PUSH1 0x20 PUSH2 0x295 DUP6 DUP3 DUP7 ADD PUSH2 0x24A JUMP JUMPDEST SWAP2 POP POP SWAP3 POP SWAP3 SWAP1 POP JUMP JUMPDEST PUSH1 0x0 DUP3 DUP3 MSTORE PUSH1 0x20 DUP3 ADD SWAP1 POP SWAP3 SWAP2 POP POP JUMP JUMPDEST PUSH32 0x4F6E6C7920746865206F776E65722063616E207472616E736665722066756E64 PUSH1 0x0 DUP3 ADD MSTORE PUSH32 0x7300000000000000000000000000000000000000000000000000000000000000 PUSH1 0x20 DUP3 ADD MSTORE POP JUMP JUMPDEST PUSH1 0x0 PUSH2 0x30C PUSH1 0x21 DUP4 PUSH2 0x29F JUMP JUMPDEST SWAP2 POP PUSH2 0x317 DUP3 PUSH2 0x2B0 JUMP JUMPDEST PUSH1 0x40 DUP3 ADD SWAP1 POP SWAP2 SWAP1 POP JUMP JUMPDEST PUSH1 0x0 PUSH1 0x20 DUP3 ADD SWAP1 POP DUP2 DUP2 SUB PUSH1 0x0 DUP4 ADD MSTORE PUSH2 0x33B DUP2 PUSH2 0x2FF JUMP JUMPDEST SWAP1 POP SWAP2 SWAP1 POP JUMP INVALID LOG2 PUSH5 0x6970667358 0x22 SLT KECCAK256 DUP7 DUP1 SWAP1 SWAP14 0xF 0xDF 0xD7 0xBB 0xB7 0xA8 CREATE2 0xA5 PUSH14 0x59BC7662C6CBE4E64A8012A512ED SGT BLOCKHASH SWAP3 0xC6 SWAP3 PUSH5 0x736F6C6343 STOP ADDMOD XOR STOP CALLER LOG2 PUSH5 0x6970667358 0x22 SLT KECCAK256 SWAP4 0xF8 PUSH10 0x8FFEC0AFCDE4F195BF04 0xC9 0xB2 0x23 KECCAK256 0x1F EXTCODEHASH JUMPDEST DUP3 0xCC 0xD5 SWAP11 LOG3 PUSH12 0xF7035E17AE8764736F6C6343 STOP ADDMOD XOR STOP CALLER "
				},
				"gasEstimates": {
					"creation": {
						"codeDepositCost": "327400",
						"executionCost": "368",
						"totalCost": "327768"
					},
					"external": {
						"createWallet(address)": "infinite"
					}
				},
				"methodIdentifiers": {
					"createWallet(address)": "b054a9e8"
				}
			},
			"storageLayout": {
				"storage": [],
				"types": null
			},
			"userdoc": {
				"kind": "user",
				"methods": {},
				"version": 1
			}
		}
	}
}