{
	"Verified.sol": {
		"DataVerification": {
			"abi": [
				{
					"anonymous": false,
					"inputs": [
						{
							"indexed": true,
							"internalType": "bytes32",
							"name": "key",
							"type": "bytes32"
						},
						{
							"indexed": true,
							"internalType": "address",
							"name": "creator",
							"type": "address"
						},
						{
							"indexed": false,
							"internalType": "string",
							"name": "data",
							"type": "string"
						}
					],
					"name": "InfoStored",
					"type": "event"
				},
				{
					"anonymous": false,
					"inputs": [
						{
							"indexed": true,
							"internalType": "bytes32",
							"name": "key",
							"type": "bytes32"
						},
						{
							"indexed": true,
							"internalType": "address",
							"name": "verifier",
							"type": "address"
						},
						{
							"indexed": false,
							"internalType": "bool",
							"name": "success",
							"type": "bool"
						}
					],
					"name": "InfoVerified",
					"type": "event"
				},
				{
					"inputs": [
						{
							"internalType": "bytes32",
							"name": "key",
							"type": "bytes32"
						}
					],
					"name": "getInfo",
					"outputs": [
						{
							"internalType": "string",
							"name": "data",
							"type": "string"
						},
						{
							"internalType": "address",
							"name": "creator",
							"type": "address"
						}
					],
					"stateMutability": "view",
					"type": "function"
				},
				{
					"inputs": [
						{
							"internalType": "string",
							"name": "data",
							"type": "string"
						}
					],
					"name": "storeInfo",
					"outputs": [],
					"stateMutability": "nonpayable",
					"type": "function"
				},
				{
					"inputs": [
						{
							"internalType": "bytes32",
							"name": "key",
							"type": "bytes32"
						},
						{
							"internalType": "string",
							"name": "data",
							"type": "string"
						}
					],
					"name": "verifyInfo",
					"outputs": [
						{
							"internalType": "bool",
							"name": "",
							"type": "bool"
						}
					],
					"stateMutability": "nonpayable",
					"type": "function"
				}
			],
			"devdoc": {
				"kind": "dev",
				"methods": {},
				"version": 1
			},
			"evm": {
				"assembly": "    /* \"Verified.sol\":60:1555  contract DataVerification {... */\n  mstore(0x40, 0x80)\n  callvalue\n  dup1\n  iszero\n  tag_1\n  jumpi\n  0x00\n  dup1\n  revert\ntag_1:\n  pop\n  dataSize(sub_0)\n  dup1\n  dataOffset(sub_0)\n  0x00\n  codecopy\n  0x00\n  return\nstop\n\nsub_0: assembly {\n        /* \"Verified.sol\":60:1555  contract DataVerification {... */\n      mstore(0x40, 0x80)\n      callvalue\n      dup1\n      iszero\n      tag_1\n      jumpi\n      0x00\n      dup1\n      revert\n    tag_1:\n      pop\n      jumpi(tag_2, lt(calldatasize, 0x04))\n      shr(0xe0, calldataload(0x00))\n      dup1\n      0x3bbb2437\n      eq\n      tag_3\n      jumpi\n      dup1\n      0x7732bb69\n      eq\n      tag_4\n      jumpi\n      dup1\n      0x7a02dc06\n      eq\n      tag_5\n      jumpi\n    tag_2:\n      0x00\n      dup1\n      revert\n        /* \"Verified.sol\":955:1269  function verifyInfo(bytes32 key, string memory data) public returns (bool) {... */\n    tag_3:\n      tag_6\n      0x04\n      dup1\n      calldatasize\n      sub\n      dup2\n      add\n      swap1\n      tag_7\n      swap2\n      swap1\n      tag_8\n      jump\t// in\n    tag_7:\n      tag_9\n      jump\t// in\n    tag_6:\n      mload(0x40)\n      tag_10\n      swap2\n      swap1\n      tag_11\n      jump\t// in\n    tag_10:\n      mload(0x40)\n      dup1\n      swap2\n      sub\n      swap1\n      return\n        /* \"Verified.sol\":658:902  function storeInfo(string memory data) public {... */\n    tag_4:\n      tag_12\n      0x04\n      dup1\n      calldatasize\n      sub\n      dup2\n      add\n      swap1\n      tag_13\n      swap2\n      swap1\n      tag_14\n      jump\t// in\n    tag_13:\n      tag_15\n      jump\t// in\n    tag_12:\n      stop\n        /* \"Verified.sol\":1366:1552  function getInfo(bytes32 key) public view returns (string memory data, address creator) {... */\n    tag_5:\n      tag_16\n      0x04\n      dup1\n      calldatasize\n      sub\n      dup2\n      add\n      swap1\n      tag_17\n      swap2\n      swap1\n      tag_18\n      jump\t// in\n    tag_17:\n      tag_19\n      jump\t// in\n    tag_16:\n      mload(0x40)\n      tag_20\n      swap3\n      swap2\n      swap1\n      tag_21\n      jump\t// in\n    tag_20:\n      mload(0x40)\n      dup1\n      swap2\n      sub\n      swap1\n      return\n        /* \"Verified.sol\":955:1269  function verifyInfo(bytes32 key, string memory data) public returns (bool) {... */\n    tag_9:\n        /* \"Verified.sol\":1024:1028  bool */\n      0x00\n        /* \"Verified.sol\":1041:1058  Info storage info */\n      dup1\n        /* \"Verified.sol\":1061:1072  infoStorage */\n      0x00\n        /* \"Verified.sol\":1061:1077  infoStorage[key] */\n      dup1\n        /* \"Verified.sol\":1073:1076  key */\n      dup6\n        /* \"Verified.sol\":1061:1077  infoStorage[key] */\n      dup2\n      mstore\n      0x20\n      add\n      swap1\n      dup2\n      mstore\n      0x20\n      add\n      0x00\n      keccak256\n        /* \"Verified.sol\":1041:1077  Info storage info = infoStorage[key] */\n      swap1\n      pop\n        /* \"Verified.sol\":1088:1100  bool success */\n      0x00\n        /* \"Verified.sol\":1173:1177  data */\n      dup4\n        /* \"Verified.sol\":1156:1178  abi.encodePacked(data) */\n      add(0x20, mload(0x40))\n      tag_23\n      swap2\n      swap1\n      tag_24\n      jump\t// in\n    tag_23:\n      mload(0x40)\n      0x20\n      dup2\n      dup4\n      sub\n      sub\n      dup2\n      mstore\n      swap1\n      0x40\n      mstore\n        /* \"Verified.sol\":1146:1179  keccak256(abi.encodePacked(data)) */\n      dup1\n      mload\n      swap1\n      0x20\n      add\n      keccak256\n        /* \"Verified.sol\":1131:1135  info */\n      dup3\n        /* \"Verified.sol\":1131:1140  info.data */\n      0x00\n      add\n        /* \"Verified.sol\":1114:1141  abi.encodePacked(info.data) */\n      add(0x20, mload(0x40))\n      tag_25\n      swap2\n      swap1\n      tag_26\n      jump\t// in\n    tag_25:\n      mload(0x40)\n      0x20\n      dup2\n      dup4\n      sub\n      sub\n      dup2\n      mstore\n      swap1\n      0x40\n      mstore\n        /* \"Verified.sol\":1104:1142  keccak256(abi.encodePacked(info.data)) */\n      dup1\n      mload\n      swap1\n      0x20\n      add\n      keccak256\n        /* \"Verified.sol\":1104:1179  keccak256(abi.encodePacked(info.data)) == keccak256(abi.encodePacked(data)) */\n      eq\n        /* \"Verified.sol\":1088:1180  bool success = (keccak256(abi.encodePacked(info.data)) == keccak256(abi.encodePacked(data))) */\n      swap1\n      pop\n        /* \"Verified.sol\":1216:1226  msg.sender */\n      caller\n        /* \"Verified.sol\":1198:1236  InfoVerified(key, msg.sender, success) */\n      0xffffffffffffffffffffffffffffffffffffffff\n      and\n        /* \"Verified.sol\":1211:1214  key */\n      dup6\n        /* \"Verified.sol\":1198:1236  InfoVerified(key, msg.sender, success) */\n      0xa18a0a76aafec2f7ff5831e22683b69432c10fb420b28cdb5627c088cbd7ed1d\n        /* \"Verified.sol\":1228:1235  success */\n      dup4\n        /* \"Verified.sol\":1198:1236  InfoVerified(key, msg.sender, success) */\n      mload(0x40)\n      tag_27\n      swap2\n      swap1\n      tag_11\n      jump\t// in\n    tag_27:\n      mload(0x40)\n      dup1\n      swap2\n      sub\n      swap1\n      log3\n        /* \"Verified.sol\":1254:1261  success */\n      dup1\n        /* \"Verified.sol\":1247:1261  return success */\n      swap3\n      pop\n      pop\n      pop\n        /* \"Verified.sol\":955:1269  function verifyInfo(bytes32 key, string memory data) public returns (bool) {... */\n      swap3\n      swap2\n      pop\n      pop\n      jump\t// out\n        /* \"Verified.sol\":658:902  function storeInfo(string memory data) public {... */\n    tag_15:\n        /* \"Verified.sol\":715:726  bytes32 key */\n      0x00\n        /* \"Verified.sol\":756:760  data */\n      dup2\n        /* \"Verified.sol\":762:772  msg.sender */\n      caller\n        /* \"Verified.sol\":774:789  block.timestamp */\n      timestamp\n        /* \"Verified.sol\":739:790  abi.encodePacked(data, msg.sender, block.timestamp) */\n      add(0x20, mload(0x40))\n      tag_29\n      swap4\n      swap3\n      swap2\n      swap1\n      tag_30\n      jump\t// in\n    tag_29:\n      mload(0x40)\n      0x20\n      dup2\n      dup4\n      sub\n      sub\n      dup2\n      mstore\n      swap1\n      0x40\n      mstore\n        /* \"Verified.sol\":729:791  keccak256(abi.encodePacked(data, msg.sender, block.timestamp)) */\n      dup1\n      mload\n      swap1\n      0x20\n      add\n      keccak256\n        /* \"Verified.sol\":715:791  bytes32 key = keccak256(abi.encodePacked(data, msg.sender, block.timestamp)) */\n      swap1\n      pop\n        /* \"Verified.sol\":821:843  Info(data, msg.sender) */\n      mload(0x40)\n      dup1\n      0x40\n      add\n      0x40\n      mstore\n      dup1\n        /* \"Verified.sol\":826:830  data */\n      dup4\n        /* \"Verified.sol\":821:843  Info(data, msg.sender) */\n      dup2\n      mstore\n      0x20\n      add\n        /* \"Verified.sol\":832:842  msg.sender */\n      caller\n        /* \"Verified.sol\":821:843  Info(data, msg.sender) */\n      0xffffffffffffffffffffffffffffffffffffffff\n      and\n      dup2\n      mstore\n      pop\n        /* \"Verified.sol\":802:813  infoStorage */\n      0x00\n        /* \"Verified.sol\":802:818  infoStorage[key] */\n      dup1\n        /* \"Verified.sol\":814:817  key */\n      dup4\n        /* \"Verified.sol\":802:818  infoStorage[key] */\n      dup2\n      mstore\n      0x20\n      add\n      swap1\n      dup2\n      mstore\n      0x20\n      add\n      0x00\n      keccak256\n        /* \"Verified.sol\":802:843  infoStorage[key] = Info(data, msg.sender) */\n      0x00\n      dup3\n      add\n      mload\n      dup2\n      0x00\n      add\n      swap1\n      dup2\n      tag_31\n      swap2\n      swap1\n      tag_32\n      jump\t// in\n    tag_31:\n      pop\n      0x20\n      dup3\n      add\n      mload\n      dup2\n      0x01\n      add\n      exp(0x0100, 0x00)\n      dup2\n      sload\n      dup2\n      0xffffffffffffffffffffffffffffffffffffffff\n      mul\n      not\n      and\n      swap1\n      dup4\n      0xffffffffffffffffffffffffffffffffffffffff\n      and\n      mul\n      or\n      swap1\n      sstore\n      pop\n      swap1\n      pop\n      pop\n        /* \"Verified.sol\":877:887  msg.sender */\n      caller\n        /* \"Verified.sol\":861:894  InfoStored(key, msg.sender, data) */\n      0xffffffffffffffffffffffffffffffffffffffff\n      and\n        /* \"Verified.sol\":872:875  key */\n      dup2\n        /* \"Verified.sol\":861:894  InfoStored(key, msg.sender, data) */\n      0xe1e4766c53fc8f5cc9de6ac92a44e1c755a9c5fa8d03debd03a6d3b5e5776706\n        /* \"Verified.sol\":889:893  data */\n      dup5\n        /* \"Verified.sol\":861:894  InfoStored(key, msg.sender, data) */\n      mload(0x40)\n      tag_33\n      swap2\n      swap1\n      tag_34\n      jump\t// in\n    tag_33:\n      mload(0x40)\n      dup1\n      swap2\n      sub\n      swap1\n      log3\n        /* \"Verified.sol\":704:902  {... */\n      pop\n        /* \"Verified.sol\":658:902  function storeInfo(string memory data) public {... */\n      pop\n      jump\t// out\n        /* \"Verified.sol\":1366:1552  function getInfo(bytes32 key) public view returns (string memory data, address creator) {... */\n    tag_19:\n        /* \"Verified.sol\":1417:1435  string memory data */\n      0x60\n        /* \"Verified.sol\":1437:1452  address creator */\n      0x00\n        /* \"Verified.sol\":1465:1482  Info storage info */\n      dup1\n        /* \"Verified.sol\":1485:1496  infoStorage */\n      0x00\n        /* \"Verified.sol\":1485:1501  infoStorage[key] */\n      dup1\n        /* \"Verified.sol\":1497:1500  key */\n      dup6\n        /* \"Verified.sol\":1485:1501  infoStorage[key] */\n      dup2\n      mstore\n      0x20\n      add\n      swap1\n      dup2\n      mstore\n      0x20\n      add\n      0x00\n      keccak256\n        /* \"Verified.sol\":1465:1501  Info storage info = infoStorage[key] */\n      swap1\n      pop\n        /* \"Verified.sol\":1520:1524  info */\n      dup1\n        /* \"Verified.sol\":1520:1529  info.data */\n      0x00\n      add\n        /* \"Verified.sol\":1531:1535  info */\n      dup2\n        /* \"Verified.sol\":1531:1543  info.creator */\n      0x01\n      add\n      0x00\n      swap1\n      sload\n      swap1\n      0x0100\n      exp\n      swap1\n      div\n      0xffffffffffffffffffffffffffffffffffffffff\n      and\n        /* \"Verified.sol\":1512:1544  return (info.data, info.creator) */\n      dup2\n      dup1\n      sload\n      tag_36\n      swap1\n      tag_37\n      jump\t// in\n    tag_36:\n      dup1\n      0x1f\n      add\n      0x20\n      dup1\n      swap2\n      div\n      mul\n      0x20\n      add\n      mload(0x40)\n      swap1\n      dup2\n      add\n      0x40\n      mstore\n      dup1\n      swap3\n      swap2\n      swap1\n      dup2\n      dup2\n      mstore\n      0x20\n      add\n      dup3\n      dup1\n      sload\n      tag_38\n      swap1\n      tag_37\n      jump\t// in\n    tag_38:\n      dup1\n      iszero\n      tag_39\n      jumpi\n      dup1\n      0x1f\n      lt\n      tag_40\n      jumpi\n      0x0100\n      dup1\n      dup4\n      sload\n      div\n      mul\n      dup4\n      mstore\n      swap2\n      0x20\n      add\n      swap2\n      jump(tag_39)\n    tag_40:\n      dup3\n      add\n      swap2\n      swap1\n      0x00\n      mstore\n      keccak256(0x00, 0x20)\n      swap1\n    tag_41:\n      dup2\n      sload\n      dup2\n      mstore\n      swap1\n      0x01\n      add\n      swap1\n      0x20\n      add\n      dup1\n      dup4\n      gt\n      tag_41\n      jumpi\n      dup3\n      swap1\n      sub\n      0x1f\n      and\n      dup3\n      add\n      swap2\n    tag_39:\n      pop\n      pop\n      pop\n      pop\n      pop\n      swap2\n      pop\n      swap3\n      pop\n      swap3\n      pop\n      pop\n        /* \"Verified.sol\":1366:1552  function getInfo(bytes32 key) public view returns (string memory data, address creator) {... */\n      swap2\n      pop\n      swap2\n      jump\t// out\n        /* \"#utility.yul\":7:82   */\n    tag_42:\n        /* \"#utility.yul\":40:46   */\n      0x00\n        /* \"#utility.yul\":73:75   */\n      0x40\n        /* \"#utility.yul\":67:76   */\n      mload\n        /* \"#utility.yul\":57:76   */\n      swap1\n      pop\n        /* \"#utility.yul\":7:82   */\n      swap1\n      jump\t// out\n        /* \"#utility.yul\":88:205   */\n    tag_43:\n        /* \"#utility.yul\":197:198   */\n      0x00\n        /* \"#utility.yul\":194:195   */\n      dup1\n        /* \"#utility.yul\":187:199   */\n      revert\n        /* \"#utility.yul\":211:328   */\n    tag_44:\n        /* \"#utility.yul\":320:321   */\n      0x00\n        /* \"#utility.yul\":317:318   */\n      dup1\n        /* \"#utility.yul\":310:322   */\n      revert\n        /* \"#utility.yul\":334:411   */\n    tag_45:\n        /* \"#utility.yul\":371:378   */\n      0x00\n        /* \"#utility.yul\":400:405   */\n      dup2\n        /* \"#utility.yul\":389:405   */\n      swap1\n      pop\n        /* \"#utility.yul\":334:411   */\n      swap2\n      swap1\n      pop\n      jump\t// out\n        /* \"#utility.yul\":417:539   */\n    tag_46:\n        /* \"#utility.yul\":490:514   */\n      tag_99\n        /* \"#utility.yul\":508:513   */\n      dup2\n        /* \"#utility.yul\":490:514   */\n      tag_45\n      jump\t// in\n    tag_99:\n        /* \"#utility.yul\":483:488   */\n      dup2\n        /* \"#utility.yul\":480:515   */\n      eq\n        /* \"#utility.yul\":470:533   */\n      tag_100\n      jumpi\n        /* \"#utility.yul\":529:530   */\n      0x00\n        /* \"#utility.yul\":526:527   */\n      dup1\n        /* \"#utility.yul\":519:531   */\n      revert\n        /* \"#utility.yul\":470:533   */\n    tag_100:\n        /* \"#utility.yul\":417:539   */\n      pop\n      jump\t// out\n        /* \"#utility.yul\":545:684   */\n    tag_47:\n        /* \"#utility.yul\":591:596   */\n      0x00\n        /* \"#utility.yul\":629:635   */\n      dup2\n        /* \"#utility.yul\":616:636   */\n      calldataload\n        /* \"#utility.yul\":607:636   */\n      swap1\n      pop\n        /* \"#utility.yul\":645:678   */\n      tag_102\n        /* \"#utility.yul\":672:677   */\n      dup2\n        /* \"#utility.yul\":645:678   */\n      tag_46\n      jump\t// in\n    tag_102:\n        /* \"#utility.yul\":545:684   */\n      swap3\n      swap2\n      pop\n      pop\n      jump\t// out\n        /* \"#utility.yul\":690:807   */\n    tag_48:\n        /* \"#utility.yul\":799:800   */\n      0x00\n        /* \"#utility.yul\":796:797   */\n      dup1\n        /* \"#utility.yul\":789:801   */\n      revert\n        /* \"#utility.yul\":813:930   */\n    tag_49:\n        /* \"#utility.yul\":922:923   */\n      0x00\n        /* \"#utility.yul\":919:920   */\n      dup1\n        /* \"#utility.yul\":912:924   */\n      revert\n        /* \"#utility.yul\":936:1038   */\n    tag_50:\n        /* \"#utility.yul\":977:983   */\n      0x00\n        /* \"#utility.yul\":1028:1030   */\n      0x1f\n        /* \"#utility.yul\":1024:1031   */\n      not\n        /* \"#utility.yul\":1019:1021   */\n      0x1f\n        /* \"#utility.yul\":1012:1017   */\n      dup4\n        /* \"#utility.yul\":1008:1022   */\n      add\n        /* \"#utility.yul\":1004:1032   */\n      and\n        /* \"#utility.yul\":994:1032   */\n      swap1\n      pop\n        /* \"#utility.yul\":936:1038   */\n      swap2\n      swap1\n      pop\n      jump\t// out\n        /* \"#utility.yul\":1044:1224   */\n    tag_51:\n        /* \"#utility.yul\":1092:1169   */\n      0x4e487b7100000000000000000000000000000000000000000000000000000000\n        /* \"#utility.yul\":1089:1090   */\n      0x00\n        /* \"#utility.yul\":1082:1170   */\n      mstore\n        /* \"#utility.yul\":1189:1193   */\n      0x41\n        /* \"#utility.yul\":1186:1187   */\n      0x04\n        /* \"#utility.yul\":1179:1194   */\n      mstore\n        /* \"#utility.yul\":1213:1217   */\n      0x24\n        /* \"#utility.yul\":1210:1211   */\n      0x00\n        /* \"#utility.yul\":1203:1218   */\n      revert\n        /* \"#utility.yul\":1230:1511   */\n    tag_52:\n        /* \"#utility.yul\":1313:1340   */\n      tag_108\n        /* \"#utility.yul\":1335:1339   */\n      dup3\n        /* \"#utility.yul\":1313:1340   */\n      tag_50\n      jump\t// in\n    tag_108:\n        /* \"#utility.yul\":1305:1311   */\n      dup2\n        /* \"#utility.yul\":1301:1341   */\n      add\n        /* \"#utility.yul\":1443:1449   */\n      dup2\n        /* \"#utility.yul\":1431:1441   */\n      dup2\n        /* \"#utility.yul\":1428:1450   */\n      lt\n        /* \"#utility.yul\":1407:1425   */\n      0xffffffffffffffff\n        /* \"#utility.yul\":1395:1405   */\n      dup3\n        /* \"#utility.yul\":1392:1426   */\n      gt\n        /* \"#utility.yul\":1389:1451   */\n      or\n        /* \"#utility.yul\":1386:1474   */\n      iszero\n      tag_109\n      jumpi\n        /* \"#utility.yul\":1454:1472   */\n      tag_110\n      tag_51\n      jump\t// in\n    tag_110:\n        /* \"#utility.yul\":1386:1474   */\n    tag_109:\n        /* \"#utility.yul\":1494:1504   */\n      dup1\n        /* \"#utility.yul\":1490:1492   */\n      0x40\n        /* \"#utility.yul\":1483:1505   */\n      mstore\n        /* \"#utility.yul\":1273:1511   */\n      pop\n        /* \"#utility.yul\":1230:1511   */\n      pop\n      pop\n      jump\t// out\n        /* \"#utility.yul\":1517:1646   */\n    tag_53:\n        /* \"#utility.yul\":1551:1557   */\n      0x00\n        /* \"#utility.yul\":1578:1598   */\n      tag_112\n      tag_42\n      jump\t// in\n    tag_112:\n        /* \"#utility.yul\":1568:1598   */\n      swap1\n      pop\n        /* \"#utility.yul\":1607:1640   */\n      tag_113\n        /* \"#utility.yul\":1635:1639   */\n      dup3\n        /* \"#utility.yul\":1627:1633   */\n      dup3\n        /* \"#utility.yul\":1607:1640   */\n      tag_52\n      jump\t// in\n    tag_113:\n        /* \"#utility.yul\":1517:1646   */\n      swap2\n      swap1\n      pop\n      jump\t// out\n        /* \"#utility.yul\":1652:1960   */\n    tag_54:\n        /* \"#utility.yul\":1714:1718   */\n      0x00\n        /* \"#utility.yul\":1804:1822   */\n      0xffffffffffffffff\n        /* \"#utility.yul\":1796:1802   */\n      dup3\n        /* \"#utility.yul\":1793:1823   */\n      gt\n        /* \"#utility.yul\":1790:1846   */\n      iszero\n      tag_115\n      jumpi\n        /* \"#utility.yul\":1826:1844   */\n      tag_116\n      tag_51\n      jump\t// in\n    tag_116:\n        /* \"#utility.yul\":1790:1846   */\n    tag_115:\n        /* \"#utility.yul\":1864:1893   */\n      tag_117\n        /* \"#utility.yul\":1886:1892   */\n      dup3\n        /* \"#utility.yul\":1864:1893   */\n      tag_50\n      jump\t// in\n    tag_117:\n        /* \"#utility.yul\":1856:1893   */\n      swap1\n      pop\n        /* \"#utility.yul\":1948:1952   */\n      0x20\n        /* \"#utility.yul\":1942:1946   */\n      dup2\n        /* \"#utility.yul\":1938:1953   */\n      add\n        /* \"#utility.yul\":1930:1953   */\n      swap1\n      pop\n        /* \"#utility.yul\":1652:1960   */\n      swap2\n      swap1\n      pop\n      jump\t// out\n        /* \"#utility.yul\":1966:2112   */\n    tag_55:\n        /* \"#utility.yul\":2063:2069   */\n      dup3\n        /* \"#utility.yul\":2058:2061   */\n      dup2\n        /* \"#utility.yul\":2053:2056   */\n      dup4\n        /* \"#utility.yul\":2040:2070   */\n      calldatacopy\n        /* \"#utility.yul\":2104:2105   */\n      0x00\n        /* \"#utility.yul\":2095:2101   */\n      dup4\n        /* \"#utility.yul\":2090:2093   */\n      dup4\n        /* \"#utility.yul\":2086:2102   */\n      add\n        /* \"#utility.yul\":2079:2106   */\n      mstore\n        /* \"#utility.yul\":1966:2112   */\n      pop\n      pop\n      pop\n      jump\t// out\n        /* \"#utility.yul\":2118:2543   */\n    tag_56:\n        /* \"#utility.yul\":2196:2201   */\n      0x00\n        /* \"#utility.yul\":2221:2287   */\n      tag_120\n        /* \"#utility.yul\":2237:2286   */\n      tag_121\n        /* \"#utility.yul\":2279:2285   */\n      dup5\n        /* \"#utility.yul\":2237:2286   */\n      tag_54\n      jump\t// in\n    tag_121:\n        /* \"#utility.yul\":2221:2287   */\n      tag_53\n      jump\t// in\n    tag_120:\n        /* \"#utility.yul\":2212:2287   */\n      swap1\n      pop\n        /* \"#utility.yul\":2310:2316   */\n      dup3\n        /* \"#utility.yul\":2303:2308   */\n      dup2\n        /* \"#utility.yul\":2296:2317   */\n      mstore\n        /* \"#utility.yul\":2348:2352   */\n      0x20\n        /* \"#utility.yul\":2341:2346   */\n      dup2\n        /* \"#utility.yul\":2337:2353   */\n      add\n        /* \"#utility.yul\":2386:2389   */\n      dup5\n        /* \"#utility.yul\":2377:2383   */\n      dup5\n        /* \"#utility.yul\":2372:2375   */\n      dup5\n        /* \"#utility.yul\":2368:2384   */\n      add\n        /* \"#utility.yul\":2365:2390   */\n      gt\n        /* \"#utility.yul\":2362:2474   */\n      iszero\n      tag_122\n      jumpi\n        /* \"#utility.yul\":2393:2472   */\n      tag_123\n      tag_49\n      jump\t// in\n    tag_123:\n        /* \"#utility.yul\":2362:2474   */\n    tag_122:\n        /* \"#utility.yul\":2483:2537   */\n      tag_124\n        /* \"#utility.yul\":2530:2536   */\n      dup5\n        /* \"#utility.yul\":2525:2528   */\n      dup3\n        /* \"#utility.yul\":2520:2523   */\n      dup6\n        /* \"#utility.yul\":2483:2537   */\n      tag_55\n      jump\t// in\n    tag_124:\n        /* \"#utility.yul\":2202:2543   */\n      pop\n        /* \"#utility.yul\":2118:2543   */\n      swap4\n      swap3\n      pop\n      pop\n      pop\n      jump\t// out\n        /* \"#utility.yul\":2563:2903   */\n    tag_57:\n        /* \"#utility.yul\":2619:2624   */\n      0x00\n        /* \"#utility.yul\":2668:2671   */\n      dup3\n        /* \"#utility.yul\":2661:2665   */\n      0x1f\n        /* \"#utility.yul\":2653:2659   */\n      dup4\n        /* \"#utility.yul\":2649:2666   */\n      add\n        /* \"#utility.yul\":2645:2672   */\n      slt\n        /* \"#utility.yul\":2635:2757   */\n      tag_126\n      jumpi\n        /* \"#utility.yul\":2676:2755   */\n      tag_127\n      tag_48\n      jump\t// in\n    tag_127:\n        /* \"#utility.yul\":2635:2757   */\n    tag_126:\n        /* \"#utility.yul\":2793:2799   */\n      dup2\n        /* \"#utility.yul\":2780:2800   */\n      calldataload\n        /* \"#utility.yul\":2818:2897   */\n      tag_128\n        /* \"#utility.yul\":2893:2896   */\n      dup5\n        /* \"#utility.yul\":2885:2891   */\n      dup3\n        /* \"#utility.yul\":2878:2882   */\n      0x20\n        /* \"#utility.yul\":2870:2876   */\n      dup7\n        /* \"#utility.yul\":2866:2883   */\n      add\n        /* \"#utility.yul\":2818:2897   */\n      tag_56\n      jump\t// in\n    tag_128:\n        /* \"#utility.yul\":2809:2897   */\n      swap2\n      pop\n        /* \"#utility.yul\":2625:2903   */\n      pop\n        /* \"#utility.yul\":2563:2903   */\n      swap3\n      swap2\n      pop\n      pop\n      jump\t// out\n        /* \"#utility.yul\":2909:3563   */\n    tag_8:\n        /* \"#utility.yul\":2987:2993   */\n      0x00\n        /* \"#utility.yul\":2995:3001   */\n      dup1\n        /* \"#utility.yul\":3044:3046   */\n      0x40\n        /* \"#utility.yul\":3032:3041   */\n      dup4\n        /* \"#utility.yul\":3023:3030   */\n      dup6\n        /* \"#utility.yul\":3019:3042   */\n      sub\n        /* \"#utility.yul\":3015:3047   */\n      slt\n        /* \"#utility.yul\":3012:3131   */\n      iszero\n      tag_130\n      jumpi\n        /* \"#utility.yul\":3050:3129   */\n      tag_131\n      tag_43\n      jump\t// in\n    tag_131:\n        /* \"#utility.yul\":3012:3131   */\n    tag_130:\n        /* \"#utility.yul\":3170:3171   */\n      0x00\n        /* \"#utility.yul\":3195:3248   */\n      tag_132\n        /* \"#utility.yul\":3240:3247   */\n      dup6\n        /* \"#utility.yul\":3231:3237   */\n      dup3\n        /* \"#utility.yul\":3220:3229   */\n      dup7\n        /* \"#utility.yul\":3216:3238   */\n      add\n        /* \"#utility.yul\":3195:3248   */\n      tag_47\n      jump\t// in\n    tag_132:\n        /* \"#utility.yul\":3185:3248   */\n      swap3\n      pop\n        /* \"#utility.yul\":3141:3258   */\n      pop\n        /* \"#utility.yul\":3325:3327   */\n      0x20\n        /* \"#utility.yul\":3314:3323   */\n      dup4\n        /* \"#utility.yul\":3310:3328   */\n      add\n        /* \"#utility.yul\":3297:3329   */\n      calldataload\n        /* \"#utility.yul\":3356:3374   */\n      0xffffffffffffffff\n        /* \"#utility.yul\":3348:3354   */\n      dup2\n        /* \"#utility.yul\":3345:3375   */\n      gt\n        /* \"#utility.yul\":3342:3459   */\n      iszero\n      tag_133\n      jumpi\n        /* \"#utility.yul\":3378:3457   */\n      tag_134\n      tag_44\n      jump\t// in\n    tag_134:\n        /* \"#utility.yul\":3342:3459   */\n    tag_133:\n        /* \"#utility.yul\":3483:3546   */\n      tag_135\n        /* \"#utility.yul\":3538:3545   */\n      dup6\n        /* \"#utility.yul\":3529:3535   */\n      dup3\n        /* \"#utility.yul\":3518:3527   */\n      dup7\n        /* \"#utility.yul\":3514:3536   */\n      add\n        /* \"#utility.yul\":3483:3546   */\n      tag_57\n      jump\t// in\n    tag_135:\n        /* \"#utility.yul\":3473:3546   */\n      swap2\n      pop\n        /* \"#utility.yul\":3268:3556   */\n      pop\n        /* \"#utility.yul\":2909:3563   */\n      swap3\n      pop\n      swap3\n      swap1\n      pop\n      jump\t// out\n        /* \"#utility.yul\":3569:3659   */\n    tag_58:\n        /* \"#utility.yul\":3603:3610   */\n      0x00\n        /* \"#utility.yul\":3646:3651   */\n      dup2\n        /* \"#utility.yul\":3639:3652   */\n      iszero\n        /* \"#utility.yul\":3632:3653   */\n      iszero\n        /* \"#utility.yul\":3621:3653   */\n      swap1\n      pop\n        /* \"#utility.yul\":3569:3659   */\n      swap2\n      swap1\n      pop\n      jump\t// out\n        /* \"#utility.yul\":3665:3774   */\n    tag_59:\n        /* \"#utility.yul\":3746:3767   */\n      tag_138\n        /* \"#utility.yul\":3761:3766   */\n      dup2\n        /* \"#utility.yul\":3746:3767   */\n      tag_58\n      jump\t// in\n    tag_138:\n        /* \"#utility.yul\":3741:3744   */\n      dup3\n        /* \"#utility.yul\":3734:3768   */\n      mstore\n        /* \"#utility.yul\":3665:3774   */\n      pop\n      pop\n      jump\t// out\n        /* \"#utility.yul\":3780:3990   */\n    tag_11:\n        /* \"#utility.yul\":3867:3871   */\n      0x00\n        /* \"#utility.yul\":3905:3907   */\n      0x20\n        /* \"#utility.yul\":3894:3903   */\n      dup3\n        /* \"#utility.yul\":3890:3908   */\n      add\n        /* \"#utility.yul\":3882:3908   */\n      swap1\n      pop\n        /* \"#utility.yul\":3918:3983   */\n      tag_140\n        /* \"#utility.yul\":3980:3981   */\n      0x00\n        /* \"#utility.yul\":3969:3978   */\n      dup4\n        /* \"#utility.yul\":3965:3982   */\n      add\n        /* \"#utility.yul\":3956:3962   */\n      dup5\n        /* \"#utility.yul\":3918:3983   */\n      tag_59\n      jump\t// in\n    tag_140:\n        /* \"#utility.yul\":3780:3990   */\n      swap3\n      swap2\n      pop\n      pop\n      jump\t// out\n        /* \"#utility.yul\":3996:4505   */\n    tag_14:\n        /* \"#utility.yul\":4065:4071   */\n      0x00\n        /* \"#utility.yul\":4114:4116   */\n      0x20\n        /* \"#utility.yul\":4102:4111   */\n      dup3\n        /* \"#utility.yul\":4093:4100   */\n      dup5\n        /* \"#utility.yul\":4089:4112   */\n      sub\n        /* \"#utility.yul\":4085:4117   */\n      slt\n        /* \"#utility.yul\":4082:4201   */\n      iszero\n      tag_142\n      jumpi\n        /* \"#utility.yul\":4120:4199   */\n      tag_143\n      tag_43\n      jump\t// in\n    tag_143:\n        /* \"#utility.yul\":4082:4201   */\n    tag_142:\n        /* \"#utility.yul\":4268:4269   */\n      0x00\n        /* \"#utility.yul\":4257:4266   */\n      dup3\n        /* \"#utility.yul\":4253:4270   */\n      add\n        /* \"#utility.yul\":4240:4271   */\n      calldataload\n        /* \"#utility.yul\":4298:4316   */\n      0xffffffffffffffff\n        /* \"#utility.yul\":4290:4296   */\n      dup2\n        /* \"#utility.yul\":4287:4317   */\n      gt\n        /* \"#utility.yul\":4284:4401   */\n      iszero\n      tag_144\n      jumpi\n        /* \"#utility.yul\":4320:4399   */\n      tag_145\n      tag_44\n      jump\t// in\n    tag_145:\n        /* \"#utility.yul\":4284:4401   */\n    tag_144:\n        /* \"#utility.yul\":4425:4488   */\n      tag_146\n        /* \"#utility.yul\":4480:4487   */\n      dup5\n        /* \"#utility.yul\":4471:4477   */\n      dup3\n        /* \"#utility.yul\":4460:4469   */\n      dup6\n        /* \"#utility.yul\":4456:4478   */\n      add\n        /* \"#utility.yul\":4425:4488   */\n      tag_57\n      jump\t// in\n    tag_146:\n        /* \"#utility.yul\":4415:4488   */\n      swap2\n      pop\n        /* \"#utility.yul\":4211:4498   */\n      pop\n        /* \"#utility.yul\":3996:4505   */\n      swap3\n      swap2\n      pop\n      pop\n      jump\t// out\n        /* \"#utility.yul\":4511:4840   */\n    tag_18:\n        /* \"#utility.yul\":4570:4576   */\n      0x00\n        /* \"#utility.yul\":4619:4621   */\n      0x20\n        /* \"#utility.yul\":4607:4616   */\n      dup3\n        /* \"#utility.yul\":4598:4605   */\n      dup5\n        /* \"#utility.yul\":4594:4617   */\n      sub\n        /* \"#utility.yul\":4590:4622   */\n      slt\n        /* \"#utility.yul\":4587:4706   */\n      iszero\n      tag_148\n      jumpi\n        /* \"#utility.yul\":4625:4704   */\n      tag_149\n      tag_43\n      jump\t// in\n    tag_149:\n        /* \"#utility.yul\":4587:4706   */\n    tag_148:\n        /* \"#utility.yul\":4745:4746   */\n      0x00\n        /* \"#utility.yul\":4770:4823   */\n      tag_150\n        /* \"#utility.yul\":4815:4822   */\n      dup5\n        /* \"#utility.yul\":4806:4812   */\n      dup3\n        /* \"#utility.yul\":4795:4804   */\n      dup6\n        /* \"#utility.yul\":4791:4813   */\n      add\n        /* \"#utility.yul\":4770:4823   */\n      tag_47\n      jump\t// in\n    tag_150:\n        /* \"#utility.yul\":4760:4823   */\n      swap2\n      pop\n        /* \"#utility.yul\":4716:4833   */\n      pop\n        /* \"#utility.yul\":4511:4840   */\n      swap3\n      swap2\n      pop\n      pop\n      jump\t// out\n        /* \"#utility.yul\":4846:4945   */\n    tag_60:\n        /* \"#utility.yul\":4898:4904   */\n      0x00\n        /* \"#utility.yul\":4932:4937   */\n      dup2\n        /* \"#utility.yul\":4926:4938   */\n      mload\n        /* \"#utility.yul\":4916:4938   */\n      swap1\n      pop\n        /* \"#utility.yul\":4846:4945   */\n      swap2\n      swap1\n      pop\n      jump\t// out\n        /* \"#utility.yul\":4951:5120   */\n    tag_61:\n        /* \"#utility.yul\":5035:5046   */\n      0x00\n        /* \"#utility.yul\":5069:5075   */\n      dup3\n        /* \"#utility.yul\":5064:5067   */\n      dup3\n        /* \"#utility.yul\":5057:5076   */\n      mstore\n        /* \"#utility.yul\":5109:5113   */\n      0x20\n        /* \"#utility.yul\":5104:5107   */\n      dup3\n        /* \"#utility.yul\":5100:5114   */\n      add\n        /* \"#utility.yul\":5085:5114   */\n      swap1\n      pop\n        /* \"#utility.yul\":4951:5120   */\n      swap3\n      swap2\n      pop\n      pop\n      jump\t// out\n        /* \"#utility.yul\":5126:5372   */\n    tag_62:\n        /* \"#utility.yul\":5207:5208   */\n      0x00\n        /* \"#utility.yul\":5217:5330   */\n    tag_154:\n        /* \"#utility.yul\":5231:5237   */\n      dup4\n        /* \"#utility.yul\":5228:5229   */\n      dup2\n        /* \"#utility.yul\":5225:5238   */\n      lt\n        /* \"#utility.yul\":5217:5330   */\n      iszero\n      tag_156\n      jumpi\n        /* \"#utility.yul\":5316:5317   */\n      dup1\n        /* \"#utility.yul\":5311:5314   */\n      dup3\n        /* \"#utility.yul\":5307:5318   */\n      add\n        /* \"#utility.yul\":5301:5319   */\n      mload\n        /* \"#utility.yul\":5297:5298   */\n      dup2\n        /* \"#utility.yul\":5292:5295   */\n      dup5\n        /* \"#utility.yul\":5288:5299   */\n      add\n        /* \"#utility.yul\":5281:5320   */\n      mstore\n        /* \"#utility.yul\":5253:5255   */\n      0x20\n        /* \"#utility.yul\":5250:5251   */\n      dup2\n        /* \"#utility.yul\":5246:5256   */\n      add\n        /* \"#utility.yul\":5241:5256   */\n      swap1\n      pop\n        /* \"#utility.yul\":5217:5330   */\n      jump(tag_154)\n    tag_156:\n        /* \"#utility.yul\":5364:5365   */\n      0x00\n        /* \"#utility.yul\":5355:5361   */\n      dup5\n        /* \"#utility.yul\":5350:5353   */\n      dup5\n        /* \"#utility.yul\":5346:5362   */\n      add\n        /* \"#utility.yul\":5339:5366   */\n      mstore\n        /* \"#utility.yul\":5188:5372   */\n      pop\n        /* \"#utility.yul\":5126:5372   */\n      pop\n      pop\n      pop\n      jump\t// out\n        /* \"#utility.yul\":5378:5755   */\n    tag_63:\n        /* \"#utility.yul\":5466:5469   */\n      0x00\n        /* \"#utility.yul\":5494:5533   */\n      tag_158\n        /* \"#utility.yul\":5527:5532   */\n      dup3\n        /* \"#utility.yul\":5494:5533   */\n      tag_60\n      jump\t// in\n    tag_158:\n        /* \"#utility.yul\":5549:5620   */\n      tag_159\n        /* \"#utility.yul\":5613:5619   */\n      dup2\n        /* \"#utility.yul\":5608:5611   */\n      dup6\n        /* \"#utility.yul\":5549:5620   */\n      tag_61\n      jump\t// in\n    tag_159:\n        /* \"#utility.yul\":5542:5620   */\n      swap4\n      pop\n        /* \"#utility.yul\":5629:5694   */\n      tag_160\n        /* \"#utility.yul\":5687:5693   */\n      dup2\n        /* \"#utility.yul\":5682:5685   */\n      dup6\n        /* \"#utility.yul\":5675:5679   */\n      0x20\n        /* \"#utility.yul\":5668:5673   */\n      dup7\n        /* \"#utility.yul\":5664:5680   */\n      add\n        /* \"#utility.yul\":5629:5694   */\n      tag_62\n      jump\t// in\n    tag_160:\n        /* \"#utility.yul\":5719:5748   */\n      tag_161\n        /* \"#utility.yul\":5741:5747   */\n      dup2\n        /* \"#utility.yul\":5719:5748   */\n      tag_50\n      jump\t// in\n    tag_161:\n        /* \"#utility.yul\":5714:5717   */\n      dup5\n        /* \"#utility.yul\":5710:5749   */\n      add\n        /* \"#utility.yul\":5703:5749   */\n      swap2\n      pop\n        /* \"#utility.yul\":5470:5755   */\n      pop\n        /* \"#utility.yul\":5378:5755   */\n      swap3\n      swap2\n      pop\n      pop\n      jump\t// out\n        /* \"#utility.yul\":5761:5887   */\n    tag_64:\n        /* \"#utility.yul\":5798:5805   */\n      0x00\n        /* \"#utility.yul\":5838:5880   */\n      0xffffffffffffffffffffffffffffffffffffffff\n        /* \"#utility.yul\":5831:5836   */\n      dup3\n        /* \"#utility.yul\":5827:5881   */\n      and\n        /* \"#utility.yul\":5816:5881   */\n      swap1\n      pop\n        /* \"#utility.yul\":5761:5887   */\n      swap2\n      swap1\n      pop\n      jump\t// out\n        /* \"#utility.yul\":5893:5989   */\n    tag_65:\n        /* \"#utility.yul\":5930:5937   */\n      0x00\n        /* \"#utility.yul\":5959:5983   */\n      tag_164\n        /* \"#utility.yul\":5977:5982   */\n      dup3\n        /* \"#utility.yul\":5959:5983   */\n      tag_64\n      jump\t// in\n    tag_164:\n        /* \"#utility.yul\":5948:5983   */\n      swap1\n      pop\n        /* \"#utility.yul\":5893:5989   */\n      swap2\n      swap1\n      pop\n      jump\t// out\n        /* \"#utility.yul\":5995:6113   */\n    tag_66:\n        /* \"#utility.yul\":6082:6106   */\n      tag_166\n        /* \"#utility.yul\":6100:6105   */\n      dup2\n        /* \"#utility.yul\":6082:6106   */\n      tag_65\n      jump\t// in\n    tag_166:\n        /* \"#utility.yul\":6077:6080   */\n      dup3\n        /* \"#utility.yul\":6070:6107   */\n      mstore\n        /* \"#utility.yul\":5995:6113   */\n      pop\n      pop\n      jump\t// out\n        /* \"#utility.yul\":6119:6542   */\n    tag_21:\n        /* \"#utility.yul\":6260:6264   */\n      0x00\n        /* \"#utility.yul\":6298:6300   */\n      0x40\n        /* \"#utility.yul\":6287:6296   */\n      dup3\n        /* \"#utility.yul\":6283:6301   */\n      add\n        /* \"#utility.yul\":6275:6301   */\n      swap1\n      pop\n        /* \"#utility.yul\":6347:6356   */\n      dup2\n        /* \"#utility.yul\":6341:6345   */\n      dup2\n        /* \"#utility.yul\":6337:6357   */\n      sub\n        /* \"#utility.yul\":6333:6334   */\n      0x00\n        /* \"#utility.yul\":6322:6331   */\n      dup4\n        /* \"#utility.yul\":6318:6335   */\n      add\n        /* \"#utility.yul\":6311:6358   */\n      mstore\n        /* \"#utility.yul\":6375:6453   */\n      tag_168\n        /* \"#utility.yul\":6448:6452   */\n      dup2\n        /* \"#utility.yul\":6439:6445   */\n      dup6\n        /* \"#utility.yul\":6375:6453   */\n      tag_63\n      jump\t// in\n    tag_168:\n        /* \"#utility.yul\":6367:6453   */\n      swap1\n      pop\n        /* \"#utility.yul\":6463:6535   */\n      tag_169\n        /* \"#utility.yul\":6531:6533   */\n      0x20\n        /* \"#utility.yul\":6520:6529   */\n      dup4\n        /* \"#utility.yul\":6516:6534   */\n      add\n        /* \"#utility.yul\":6507:6513   */\n      dup5\n        /* \"#utility.yul\":6463:6535   */\n      tag_66\n      jump\t// in\n    tag_169:\n        /* \"#utility.yul\":6119:6542   */\n      swap4\n      swap3\n      pop\n      pop\n      pop\n      jump\t// out\n        /* \"#utility.yul\":6548:6696   */\n    tag_67:\n        /* \"#utility.yul\":6650:6661   */\n      0x00\n        /* \"#utility.yul\":6687:6690   */\n      dup2\n        /* \"#utility.yul\":6672:6690   */\n      swap1\n      pop\n        /* \"#utility.yul\":6548:6696   */\n      swap3\n      swap2\n      pop\n      pop\n      jump\t// out\n        /* \"#utility.yul\":6702:7092   */\n    tag_68:\n        /* \"#utility.yul\":6808:6811   */\n      0x00\n        /* \"#utility.yul\":6836:6875   */\n      tag_172\n        /* \"#utility.yul\":6869:6874   */\n      dup3\n        /* \"#utility.yul\":6836:6875   */\n      tag_60\n      jump\t// in\n    tag_172:\n        /* \"#utility.yul\":6891:6980   */\n      tag_173\n        /* \"#utility.yul\":6973:6979   */\n      dup2\n        /* \"#utility.yul\":6968:6971   */\n      dup6\n        /* \"#utility.yul\":6891:6980   */\n      tag_67\n      jump\t// in\n    tag_173:\n        /* \"#utility.yul\":6884:6980   */\n      swap4\n      pop\n        /* \"#utility.yul\":6989:7054   */\n      tag_174\n        /* \"#utility.yul\":7047:7053   */\n      dup2\n        /* \"#utility.yul\":7042:7045   */\n      dup6\n        /* \"#utility.yul\":7035:7039   */\n      0x20\n        /* \"#utility.yul\":7028:7033   */\n      dup7\n        /* \"#utility.yul\":7024:7040   */\n      add\n        /* \"#utility.yul\":6989:7054   */\n      tag_62\n      jump\t// in\n    tag_174:\n        /* \"#utility.yul\":7079:7085   */\n      dup1\n        /* \"#utility.yul\":7074:7077   */\n      dup5\n        /* \"#utility.yul\":7070:7086   */\n      add\n        /* \"#utility.yul\":7063:7086   */\n      swap2\n      pop\n        /* \"#utility.yul\":6812:7092   */\n      pop\n        /* \"#utility.yul\":6702:7092   */\n      swap3\n      swap2\n      pop\n      pop\n      jump\t// out\n        /* \"#utility.yul\":7098:7373   */\n    tag_24:\n        /* \"#utility.yul\":7230:7233   */\n      0x00\n        /* \"#utility.yul\":7252:7347   */\n      tag_176\n        /* \"#utility.yul\":7343:7346   */\n      dup3\n        /* \"#utility.yul\":7334:7340   */\n      dup5\n        /* \"#utility.yul\":7252:7347   */\n      tag_68\n      jump\t// in\n    tag_176:\n        /* \"#utility.yul\":7245:7347   */\n      swap2\n      pop\n        /* \"#utility.yul\":7364:7367   */\n      dup2\n        /* \"#utility.yul\":7357:7367   */\n      swap1\n      pop\n        /* \"#utility.yul\":7098:7373   */\n      swap3\n      swap2\n      pop\n      pop\n      jump\t// out\n        /* \"#utility.yul\":7379:7559   */\n    tag_69:\n        /* \"#utility.yul\":7427:7504   */\n      0x4e487b7100000000000000000000000000000000000000000000000000000000\n        /* \"#utility.yul\":7424:7425   */\n      0x00\n        /* \"#utility.yul\":7417:7505   */\n      mstore\n        /* \"#utility.yul\":7524:7528   */\n      0x22\n        /* \"#utility.yul\":7521:7522   */\n      0x04\n        /* \"#utility.yul\":7514:7529   */\n      mstore\n        /* \"#utility.yul\":7548:7552   */\n      0x24\n        /* \"#utility.yul\":7545:7546   */\n      0x00\n        /* \"#utility.yul\":7538:7553   */\n      revert\n        /* \"#utility.yul\":7565:7885   */\n    tag_37:\n        /* \"#utility.yul\":7609:7615   */\n      0x00\n        /* \"#utility.yul\":7646:7647   */\n      0x02\n        /* \"#utility.yul\":7640:7644   */\n      dup3\n        /* \"#utility.yul\":7636:7648   */\n      div\n        /* \"#utility.yul\":7626:7648   */\n      swap1\n      pop\n        /* \"#utility.yul\":7693:7694   */\n      0x01\n        /* \"#utility.yul\":7687:7691   */\n      dup3\n        /* \"#utility.yul\":7683:7695   */\n      and\n        /* \"#utility.yul\":7714:7732   */\n      dup1\n        /* \"#utility.yul\":7704:7785   */\n      tag_179\n      jumpi\n        /* \"#utility.yul\":7770:7774   */\n      0x7f\n        /* \"#utility.yul\":7762:7768   */\n      dup3\n        /* \"#utility.yul\":7758:7775   */\n      and\n        /* \"#utility.yul\":7748:7775   */\n      swap2\n      pop\n        /* \"#utility.yul\":7704:7785   */\n    tag_179:\n        /* \"#utility.yul\":7832:7834   */\n      0x20\n        /* \"#utility.yul\":7824:7830   */\n      dup3\n        /* \"#utility.yul\":7821:7835   */\n      lt\n        /* \"#utility.yul\":7801:7819   */\n      dup2\n        /* \"#utility.yul\":7798:7836   */\n      sub\n        /* \"#utility.yul\":7795:7879   */\n      tag_180\n      jumpi\n        /* \"#utility.yul\":7851:7869   */\n      tag_181\n      tag_69\n      jump\t// in\n    tag_181:\n        /* \"#utility.yul\":7795:7879   */\n    tag_180:\n        /* \"#utility.yul\":7616:7885   */\n      pop\n        /* \"#utility.yul\":7565:7885   */\n      swap2\n      swap1\n      pop\n      jump\t// out\n        /* \"#utility.yul\":7891:8032   */\n    tag_70:\n        /* \"#utility.yul\":7940:7944   */\n      0x00\n        /* \"#utility.yul\":7963:7966   */\n      dup2\n        /* \"#utility.yul\":7955:7966   */\n      swap1\n      pop\n        /* \"#utility.yul\":7986:7989   */\n      dup2\n        /* \"#utility.yul\":7983:7984   */\n      0x00\n        /* \"#utility.yul\":7976:7990   */\n      mstore\n        /* \"#utility.yul\":8020:8024   */\n      0x20\n        /* \"#utility.yul\":8017:8018   */\n      0x00\n        /* \"#utility.yul\":8007:8025   */\n      keccak256\n        /* \"#utility.yul\":7999:8025   */\n      swap1\n      pop\n        /* \"#utility.yul\":7891:8032   */\n      swap2\n      swap1\n      pop\n      jump\t// out\n        /* \"#utility.yul\":8062:8936   */\n    tag_71:\n        /* \"#utility.yul\":8165:8168   */\n      0x00\n        /* \"#utility.yul\":8202:8207   */\n      dup2\n        /* \"#utility.yul\":8196:8208   */\n      sload\n        /* \"#utility.yul\":8231:8267   */\n      tag_184\n        /* \"#utility.yul\":8257:8266   */\n      dup2\n        /* \"#utility.yul\":8231:8267   */\n      tag_37\n      jump\t// in\n    tag_184:\n        /* \"#utility.yul\":8283:8372   */\n      tag_185\n        /* \"#utility.yul\":8365:8371   */\n      dup2\n        /* \"#utility.yul\":8360:8363   */\n      dup7\n        /* \"#utility.yul\":8283:8372   */\n      tag_67\n      jump\t// in\n    tag_185:\n        /* \"#utility.yul\":8276:8372   */\n      swap5\n      pop\n        /* \"#utility.yul\":8403:8404   */\n      0x01\n        /* \"#utility.yul\":8392:8401   */\n      dup3\n        /* \"#utility.yul\":8388:8405   */\n      and\n        /* \"#utility.yul\":8419:8420   */\n      0x00\n        /* \"#utility.yul\":8414:8580   */\n      dup2\n      eq\n      tag_187\n      jumpi\n        /* \"#utility.yul\":8594:8595   */\n      0x01\n        /* \"#utility.yul\":8589:8930   */\n      dup2\n      eq\n      tag_188\n      jumpi\n        /* \"#utility.yul\":8381:8930   */\n      jump(tag_186)\n        /* \"#utility.yul\":8414:8580   */\n    tag_187:\n        /* \"#utility.yul\":8498:8502   */\n      0xff\n        /* \"#utility.yul\":8494:8503   */\n      not\n        /* \"#utility.yul\":8483:8492   */\n      dup4\n        /* \"#utility.yul\":8479:8504   */\n      and\n        /* \"#utility.yul\":8474:8477   */\n      dup7\n        /* \"#utility.yul\":8467:8505   */\n      mstore\n        /* \"#utility.yul\":8560:8566   */\n      dup2\n        /* \"#utility.yul\":8553:8567   */\n      iszero\n        /* \"#utility.yul\":8546:8568   */\n      iszero\n        /* \"#utility.yul\":8538:8544   */\n      dup3\n        /* \"#utility.yul\":8534:8569   */\n      mul\n        /* \"#utility.yul\":8529:8532   */\n      dup7\n        /* \"#utility.yul\":8525:8570   */\n      add\n        /* \"#utility.yul\":8518:8570   */\n      swap4\n      pop\n        /* \"#utility.yul\":8414:8580   */\n      jump(tag_186)\n        /* \"#utility.yul\":8589:8930   */\n    tag_188:\n        /* \"#utility.yul\":8656:8694   */\n      tag_189\n        /* \"#utility.yul\":8688:8693   */\n      dup6\n        /* \"#utility.yul\":8656:8694   */\n      tag_70\n      jump\t// in\n    tag_189:\n        /* \"#utility.yul\":8716:8717   */\n      0x00\n        /* \"#utility.yul\":8730:8884   */\n    tag_190:\n        /* \"#utility.yul\":8744:8750   */\n      dup4\n        /* \"#utility.yul\":8741:8742   */\n      dup2\n        /* \"#utility.yul\":8738:8751   */\n      lt\n        /* \"#utility.yul\":8730:8884   */\n      iszero\n      tag_192\n      jumpi\n        /* \"#utility.yul\":8818:8825   */\n      dup2\n        /* \"#utility.yul\":8812:8826   */\n      sload\n        /* \"#utility.yul\":8808:8809   */\n      dup2\n        /* \"#utility.yul\":8803:8806   */\n      dup10\n        /* \"#utility.yul\":8799:8810   */\n      add\n        /* \"#utility.yul\":8792:8827   */\n      mstore\n        /* \"#utility.yul\":8868:8869   */\n      0x01\n        /* \"#utility.yul\":8859:8866   */\n      dup3\n        /* \"#utility.yul\":8855:8870   */\n      add\n        /* \"#utility.yul\":8844:8870   */\n      swap2\n      pop\n        /* \"#utility.yul\":8766:8770   */\n      0x20\n        /* \"#utility.yul\":8763:8764   */\n      dup2\n        /* \"#utility.yul\":8759:8771   */\n      add\n        /* \"#utility.yul\":8754:8771   */\n      swap1\n      pop\n        /* \"#utility.yul\":8730:8884   */\n      jump(tag_190)\n    tag_192:\n        /* \"#utility.yul\":8913:8919   */\n      dup4\n        /* \"#utility.yul\":8908:8911   */\n      dup9\n        /* \"#utility.yul\":8904:8920   */\n      add\n        /* \"#utility.yul\":8897:8920   */\n      swap6\n      pop\n        /* \"#utility.yul\":8596:8930   */\n      pop\n      pop\n        /* \"#utility.yul\":8381:8930   */\n    tag_186:\n      pop\n        /* \"#utility.yul\":8169:8936   */\n      pop\n      pop\n        /* \"#utility.yul\":8062:8936   */\n      swap3\n      swap2\n      pop\n      pop\n      jump\t// out\n        /* \"#utility.yul\":8942:9211   */\n    tag_26:\n        /* \"#utility.yul\":9071:9074   */\n      0x00\n        /* \"#utility.yul\":9093:9185   */\n      tag_194\n        /* \"#utility.yul\":9181:9184   */\n      dup3\n        /* \"#utility.yul\":9172:9178   */\n      dup5\n        /* \"#utility.yul\":9093:9185   */\n      tag_71\n      jump\t// in\n    tag_194:\n        /* \"#utility.yul\":9086:9185   */\n      swap2\n      pop\n        /* \"#utility.yul\":9202:9205   */\n      dup2\n        /* \"#utility.yul\":9195:9205   */\n      swap1\n      pop\n        /* \"#utility.yul\":8942:9211   */\n      swap3\n      swap2\n      pop\n      pop\n      jump\t// out\n        /* \"#utility.yul\":9217:9311   */\n    tag_72:\n        /* \"#utility.yul\":9250:9258   */\n      0x00\n        /* \"#utility.yul\":9298:9303   */\n      dup2\n        /* \"#utility.yul\":9294:9296   */\n      0x60\n        /* \"#utility.yul\":9290:9304   */\n      shl\n        /* \"#utility.yul\":9269:9304   */\n      swap1\n      pop\n        /* \"#utility.yul\":9217:9311   */\n      swap2\n      swap1\n      pop\n      jump\t// out\n        /* \"#utility.yul\":9317:9411   */\n    tag_73:\n        /* \"#utility.yul\":9356:9363   */\n      0x00\n        /* \"#utility.yul\":9385:9405   */\n      tag_197\n        /* \"#utility.yul\":9399:9404   */\n      dup3\n        /* \"#utility.yul\":9385:9405   */\n      tag_72\n      jump\t// in\n    tag_197:\n        /* \"#utility.yul\":9374:9405   */\n      swap1\n      pop\n        /* \"#utility.yul\":9317:9411   */\n      swap2\n      swap1\n      pop\n      jump\t// out\n        /* \"#utility.yul\":9417:9517   */\n    tag_74:\n        /* \"#utility.yul\":9456:9463   */\n      0x00\n        /* \"#utility.yul\":9485:9511   */\n      tag_199\n        /* \"#utility.yul\":9505:9510   */\n      dup3\n        /* \"#utility.yul\":9485:9511   */\n      tag_73\n      jump\t// in\n    tag_199:\n        /* \"#utility.yul\":9474:9511   */\n      swap1\n      pop\n        /* \"#utility.yul\":9417:9517   */\n      swap2\n      swap1\n      pop\n      jump\t// out\n        /* \"#utility.yul\":9523:9680   */\n    tag_75:\n        /* \"#utility.yul\":9628:9673   */\n      tag_201\n        /* \"#utility.yul\":9648:9672   */\n      tag_202\n        /* \"#utility.yul\":9666:9671   */\n      dup3\n        /* \"#utility.yul\":9648:9672   */\n      tag_65\n      jump\t// in\n    tag_202:\n        /* \"#utility.yul\":9628:9673   */\n      tag_74\n      jump\t// in\n    tag_201:\n        /* \"#utility.yul\":9623:9626   */\n      dup3\n        /* \"#utility.yul\":9616:9674   */\n      mstore\n        /* \"#utility.yul\":9523:9680   */\n      pop\n      pop\n      jump\t// out\n        /* \"#utility.yul\":9686:9763   */\n    tag_76:\n        /* \"#utility.yul\":9723:9730   */\n      0x00\n        /* \"#utility.yul\":9752:9757   */\n      dup2\n        /* \"#utility.yul\":9741:9757   */\n      swap1\n      pop\n        /* \"#utility.yul\":9686:9763   */\n      swap2\n      swap1\n      pop\n      jump\t// out\n        /* \"#utility.yul\":9769:9848   */\n    tag_77:\n        /* \"#utility.yul\":9808:9815   */\n      0x00\n        /* \"#utility.yul\":9837:9842   */\n      dup2\n        /* \"#utility.yul\":9826:9842   */\n      swap1\n      pop\n        /* \"#utility.yul\":9769:9848   */\n      swap2\n      swap1\n      pop\n      jump\t// out\n        /* \"#utility.yul\":9854:10011   */\n    tag_78:\n        /* \"#utility.yul\":9959:10004   */\n      tag_206\n        /* \"#utility.yul\":9979:10003   */\n      tag_207\n        /* \"#utility.yul\":9997:10002   */\n      dup3\n        /* \"#utility.yul\":9979:10003   */\n      tag_76\n      jump\t// in\n    tag_207:\n        /* \"#utility.yul\":9959:10004   */\n      tag_77\n      jump\t// in\n    tag_206:\n        /* \"#utility.yul\":9954:9957   */\n      dup3\n        /* \"#utility.yul\":9947:10005   */\n      mstore\n        /* \"#utility.yul\":9854:10011   */\n      pop\n      pop\n      jump\t// out\n        /* \"#utility.yul\":10017:10574   */\n    tag_30:\n        /* \"#utility.yul\":10205:10208   */\n      0x00\n        /* \"#utility.yul\":10227:10322   */\n      tag_209\n        /* \"#utility.yul\":10318:10321   */\n      dup3\n        /* \"#utility.yul\":10309:10315   */\n      dup7\n        /* \"#utility.yul\":10227:10322   */\n      tag_68\n      jump\t// in\n    tag_209:\n        /* \"#utility.yul\":10220:10322   */\n      swap2\n      pop\n        /* \"#utility.yul\":10332:10407   */\n      tag_210\n        /* \"#utility.yul\":10403:10406   */\n      dup3\n        /* \"#utility.yul\":10394:10400   */\n      dup6\n        /* \"#utility.yul\":10332:10407   */\n      tag_75\n      jump\t// in\n    tag_210:\n        /* \"#utility.yul\":10432:10434   */\n      0x14\n        /* \"#utility.yul\":10427:10430   */\n      dup3\n        /* \"#utility.yul\":10423:10435   */\n      add\n        /* \"#utility.yul\":10416:10435   */\n      swap2\n      pop\n        /* \"#utility.yul\":10445:10520   */\n      tag_211\n        /* \"#utility.yul\":10516:10519   */\n      dup3\n        /* \"#utility.yul\":10507:10513   */\n      dup5\n        /* \"#utility.yul\":10445:10520   */\n      tag_78\n      jump\t// in\n    tag_211:\n        /* \"#utility.yul\":10545:10547   */\n      0x20\n        /* \"#utility.yul\":10540:10543   */\n      dup3\n        /* \"#utility.yul\":10536:10548   */\n      add\n        /* \"#utility.yul\":10529:10548   */\n      swap2\n      pop\n        /* \"#utility.yul\":10565:10568   */\n      dup2\n        /* \"#utility.yul\":10558:10568   */\n      swap1\n      pop\n        /* \"#utility.yul\":10017:10574   */\n      swap5\n      swap4\n      pop\n      pop\n      pop\n      pop\n      jump\t// out\n        /* \"#utility.yul\":10580:10673   */\n    tag_79:\n        /* \"#utility.yul\":10617:10623   */\n      0x00\n        /* \"#utility.yul\":10664:10666   */\n      0x20\n        /* \"#utility.yul\":10659:10661   */\n      0x1f\n        /* \"#utility.yul\":10652:10657   */\n      dup4\n        /* \"#utility.yul\":10648:10662   */\n      add\n        /* \"#utility.yul\":10644:10667   */\n      div\n        /* \"#utility.yul\":10634:10667   */\n      swap1\n      pop\n        /* \"#utility.yul\":10580:10673   */\n      swap2\n      swap1\n      pop\n      jump\t// out\n        /* \"#utility.yul\":10679:10786   */\n    tag_80:\n        /* \"#utility.yul\":10723:10731   */\n      0x00\n        /* \"#utility.yul\":10773:10778   */\n      dup3\n        /* \"#utility.yul\":10767:10771   */\n      dup3\n        /* \"#utility.yul\":10763:10779   */\n      shl\n        /* \"#utility.yul\":10742:10779   */\n      swap1\n      pop\n        /* \"#utility.yul\":10679:10786   */\n      swap3\n      swap2\n      pop\n      pop\n      jump\t// out\n        /* \"#utility.yul\":10792:11185   */\n    tag_81:\n        /* \"#utility.yul\":10861:10867   */\n      0x00\n        /* \"#utility.yul\":10911:10912   */\n      0x08\n        /* \"#utility.yul\":10899:10909   */\n      dup4\n        /* \"#utility.yul\":10895:10913   */\n      mul\n        /* \"#utility.yul\":10934:11031   */\n      tag_215\n        /* \"#utility.yul\":10964:11030   */\n      0xffffffffffffffffffffffffffffffffffffffffffffffffffffffffffffffff\n        /* \"#utility.yul\":10953:10962   */\n      dup3\n        /* \"#utility.yul\":10934:11031   */\n      tag_80\n      jump\t// in\n    tag_215:\n        /* \"#utility.yul\":11052:11091   */\n      tag_216\n        /* \"#utility.yul\":11082:11090   */\n      dup7\n        /* \"#utility.yul\":11071:11080   */\n      dup4\n        /* \"#utility.yul\":11052:11091   */\n      tag_80\n      jump\t// in\n    tag_216:\n        /* \"#utility.yul\":11040:11091   */\n      swap6\n      pop\n        /* \"#utility.yul\":11124:11128   */\n      dup1\n        /* \"#utility.yul\":11120:11129   */\n      not\n        /* \"#utility.yul\":11113:11118   */\n      dup5\n        /* \"#utility.yul\":11109:11130   */\n      and\n        /* \"#utility.yul\":11100:11130   */\n      swap4\n      pop\n        /* \"#utility.yul\":11173:11177   */\n      dup1\n        /* \"#utility.yul\":11163:11171   */\n      dup7\n        /* \"#utility.yul\":11159:11178   */\n      and\n        /* \"#utility.yul\":11152:11157   */\n      dup5\n        /* \"#utility.yul\":11149:11179   */\n      or\n        /* \"#utility.yul\":11139:11179   */\n      swap3\n      pop\n        /* \"#utility.yul\":10868:11185   */\n      pop\n      pop\n        /* \"#utility.yul\":10792:11185   */\n      swap4\n      swap3\n      pop\n      pop\n      pop\n      jump\t// out\n        /* \"#utility.yul\":11191:11251   */\n    tag_82:\n        /* \"#utility.yul\":11219:11222   */\n      0x00\n        /* \"#utility.yul\":11240:11245   */\n      dup2\n        /* \"#utility.yul\":11233:11245   */\n      swap1\n      pop\n        /* \"#utility.yul\":11191:11251   */\n      swap2\n      swap1\n      pop\n      jump\t// out\n        /* \"#utility.yul\":11257:11399   */\n    tag_83:\n        /* \"#utility.yul\":11307:11316   */\n      0x00\n        /* \"#utility.yul\":11340:11393   */\n      tag_219\n        /* \"#utility.yul\":11358:11392   */\n      tag_220\n        /* \"#utility.yul\":11367:11391   */\n      tag_221\n        /* \"#utility.yul\":11385:11390   */\n      dup5\n        /* \"#utility.yul\":11367:11391   */\n      tag_76\n      jump\t// in\n    tag_221:\n        /* \"#utility.yul\":11358:11392   */\n      tag_82\n      jump\t// in\n    tag_220:\n        /* \"#utility.yul\":11340:11393   */\n      tag_76\n      jump\t// in\n    tag_219:\n        /* \"#utility.yul\":11327:11393   */\n      swap1\n      pop\n        /* \"#utility.yul\":11257:11399   */\n      swap2\n      swap1\n      pop\n      jump\t// out\n        /* \"#utility.yul\":11405:11480   */\n    tag_84:\n        /* \"#utility.yul\":11448:11451   */\n      0x00\n        /* \"#utility.yul\":11469:11474   */\n      dup2\n        /* \"#utility.yul\":11462:11474   */\n      swap1\n      pop\n        /* \"#utility.yul\":11405:11480   */\n      swap2\n      swap1\n      pop\n      jump\t// out\n        /* \"#utility.yul\":11486:11755   */\n    tag_85:\n        /* \"#utility.yul\":11596:11635   */\n      tag_224\n        /* \"#utility.yul\":11627:11634   */\n      dup4\n        /* \"#utility.yul\":11596:11635   */\n      tag_83\n      jump\t// in\n    tag_224:\n        /* \"#utility.yul\":11657:11748   */\n      tag_225\n        /* \"#utility.yul\":11706:11747   */\n      tag_226\n        /* \"#utility.yul\":11730:11746   */\n      dup3\n        /* \"#utility.yul\":11706:11747   */\n      tag_84\n      jump\t// in\n    tag_226:\n        /* \"#utility.yul\":11698:11704   */\n      dup5\n        /* \"#utility.yul\":11691:11695   */\n      dup5\n        /* \"#utility.yul\":11685:11696   */\n      sload\n        /* \"#utility.yul\":11657:11748   */\n      tag_81\n      jump\t// in\n    tag_225:\n        /* \"#utility.yul\":11651:11655   */\n      dup3\n        /* \"#utility.yul\":11644:11749   */\n      sstore\n        /* \"#utility.yul\":11562:11755   */\n      pop\n        /* \"#utility.yul\":11486:11755   */\n      pop\n      pop\n      pop\n      jump\t// out\n        /* \"#utility.yul\":11761:11834   */\n    tag_86:\n        /* \"#utility.yul\":11806:11809   */\n      0x00\n        /* \"#utility.yul\":11761:11834   */\n      swap1\n      jump\t// out\n        /* \"#utility.yul\":11840:12029   */\n    tag_87:\n        /* \"#utility.yul\":11917:11949   */\n      tag_229\n      tag_86\n      jump\t// in\n    tag_229:\n        /* \"#utility.yul\":11958:12023   */\n      tag_230\n        /* \"#utility.yul\":12016:12022   */\n      dup2\n        /* \"#utility.yul\":12008:12014   */\n      dup5\n        /* \"#utility.yul\":12002:12006   */\n      dup5\n        /* \"#utility.yul\":11958:12023   */\n      tag_85\n      jump\t// in\n    tag_230:\n        /* \"#utility.yul\":11893:12029   */\n      pop\n        /* \"#utility.yul\":11840:12029   */\n      pop\n      pop\n      jump\t// out\n        /* \"#utility.yul\":12035:12221   */\n    tag_88:\n        /* \"#utility.yul\":12095:12215   */\n    tag_232:\n        /* \"#utility.yul\":12112:12115   */\n      dup2\n        /* \"#utility.yul\":12105:12110   */\n      dup2\n        /* \"#utility.yul\":12102:12116   */\n      lt\n        /* \"#utility.yul\":12095:12215   */\n      iszero\n      tag_234\n      jumpi\n        /* \"#utility.yul\":12166:12205   */\n      tag_235\n        /* \"#utility.yul\":12203:12204   */\n      0x00\n        /* \"#utility.yul\":12196:12201   */\n      dup3\n        /* \"#utility.yul\":12166:12205   */\n      tag_87\n      jump\t// in\n    tag_235:\n        /* \"#utility.yul\":12139:12140   */\n      0x01\n        /* \"#utility.yul\":12132:12137   */\n      dup2\n        /* \"#utility.yul\":12128:12141   */\n      add\n        /* \"#utility.yul\":12119:12141   */\n      swap1\n      pop\n        /* \"#utility.yul\":12095:12215   */\n      jump(tag_232)\n    tag_234:\n        /* \"#utility.yul\":12035:12221   */\n      pop\n      pop\n      jump\t// out\n        /* \"#utility.yul\":12227:12770   */\n    tag_89:\n        /* \"#utility.yul\":12328:12330   */\n      0x1f\n        /* \"#utility.yul\":12323:12326   */\n      dup3\n        /* \"#utility.yul\":12320:12331   */\n      gt\n        /* \"#utility.yul\":12317:12763   */\n      iszero\n      tag_237\n      jumpi\n        /* \"#utility.yul\":12362:12400   */\n      tag_238\n        /* \"#utility.yul\":12394:12399   */\n      dup2\n        /* \"#utility.yul\":12362:12400   */\n      tag_70\n      jump\t// in\n    tag_238:\n        /* \"#utility.yul\":12446:12475   */\n      tag_239\n        /* \"#utility.yul\":12464:12474   */\n      dup5\n        /* \"#utility.yul\":12446:12475   */\n      tag_79\n      jump\t// in\n    tag_239:\n        /* \"#utility.yul\":12436:12444   */\n      dup2\n        /* \"#utility.yul\":12432:12476   */\n      add\n        /* \"#utility.yul\":12629:12631   */\n      0x20\n        /* \"#utility.yul\":12617:12627   */\n      dup6\n        /* \"#utility.yul\":12614:12632   */\n      lt\n        /* \"#utility.yul\":12611:12660   */\n      iszero\n      tag_240\n      jumpi\n        /* \"#utility.yul\":12650:12658   */\n      dup2\n        /* \"#utility.yul\":12635:12658   */\n      swap1\n      pop\n        /* \"#utility.yul\":12611:12660   */\n    tag_240:\n        /* \"#utility.yul\":12673:12753   */\n      tag_241\n        /* \"#utility.yul\":12729:12751   */\n      tag_242\n        /* \"#utility.yul\":12747:12750   */\n      dup6\n        /* \"#utility.yul\":12729:12751   */\n      tag_79\n      jump\t// in\n    tag_242:\n        /* \"#utility.yul\":12719:12727   */\n      dup4\n        /* \"#utility.yul\":12715:12752   */\n      add\n        /* \"#utility.yul\":12702:12713   */\n      dup3\n        /* \"#utility.yul\":12673:12753   */\n      tag_88\n      jump\t// in\n    tag_241:\n        /* \"#utility.yul\":12332:12763   */\n      pop\n      pop\n        /* \"#utility.yul\":12317:12763   */\n    tag_237:\n        /* \"#utility.yul\":12227:12770   */\n      pop\n      pop\n      pop\n      jump\t// out\n        /* \"#utility.yul\":12776:12893   */\n    tag_90:\n        /* \"#utility.yul\":12830:12838   */\n      0x00\n        /* \"#utility.yul\":12880:12885   */\n      dup3\n        /* \"#utility.yul\":12874:12878   */\n      dup3\n        /* \"#utility.yul\":12870:12886   */\n      shr\n        /* \"#utility.yul\":12849:12886   */\n      swap1\n      pop\n        /* \"#utility.yul\":12776:12893   */\n      swap3\n      swap2\n      pop\n      pop\n      jump\t// out\n        /* \"#utility.yul\":12899:13068   */\n    tag_91:\n        /* \"#utility.yul\":12943:12949   */\n      0x00\n        /* \"#utility.yul\":12976:13027   */\n      tag_245\n        /* \"#utility.yul\":13024:13025   */\n      0x00\n        /* \"#utility.yul\":13020:13026   */\n      not\n        /* \"#utility.yul\":13012:13017   */\n      dup5\n        /* \"#utility.yul\":13009:13010   */\n      0x08\n        /* \"#utility.yul\":13005:13018   */\n      mul\n        /* \"#utility.yul\":12976:13027   */\n      tag_90\n      jump\t// in\n    tag_245:\n        /* \"#utility.yul\":12972:13028   */\n      not\n        /* \"#utility.yul\":13057:13061   */\n      dup1\n        /* \"#utility.yul\":13051:13055   */\n      dup4\n        /* \"#utility.yul\":13047:13062   */\n      and\n        /* \"#utility.yul\":13037:13062   */\n      swap2\n      pop\n        /* \"#utility.yul\":12950:13068   */\n      pop\n        /* \"#utility.yul\":12899:13068   */\n      swap3\n      swap2\n      pop\n      pop\n      jump\t// out\n        /* \"#utility.yul\":13073:13368   */\n    tag_92:\n        /* \"#utility.yul\":13149:13153   */\n      0x00\n        /* \"#utility.yul\":13295:13324   */\n      tag_247\n        /* \"#utility.yul\":13320:13323   */\n      dup4\n        /* \"#utility.yul\":13314:13318   */\n      dup4\n        /* \"#utility.yul\":13295:13324   */\n      tag_91\n      jump\t// in\n    tag_247:\n        /* \"#utility.yul\":13287:13324   */\n      swap2\n      pop\n        /* \"#utility.yul\":13357:13360   */\n      dup3\n        /* \"#utility.yul\":13354:13355   */\n      0x02\n        /* \"#utility.yul\":13350:13361   */\n      mul\n        /* \"#utility.yul\":13344:13348   */\n      dup3\n        /* \"#utility.yul\":13341:13362   */\n      or\n        /* \"#utility.yul\":13333:13362   */\n      swap1\n      pop\n        /* \"#utility.yul\":13073:13368   */\n      swap3\n      swap2\n      pop\n      pop\n      jump\t// out\n        /* \"#utility.yul\":13373:14768   */\n    tag_32:\n        /* \"#utility.yul\":13490:13527   */\n      tag_249\n        /* \"#utility.yul\":13523:13526   */\n      dup3\n        /* \"#utility.yul\":13490:13527   */\n      tag_60\n      jump\t// in\n    tag_249:\n        /* \"#utility.yul\":13592:13610   */\n      0xffffffffffffffff\n        /* \"#utility.yul\":13584:13590   */\n      dup2\n        /* \"#utility.yul\":13581:13611   */\n      gt\n        /* \"#utility.yul\":13578:13634   */\n      iszero\n      tag_250\n      jumpi\n        /* \"#utility.yul\":13614:13632   */\n      tag_251\n      tag_51\n      jump\t// in\n    tag_251:\n        /* \"#utility.yul\":13578:13634   */\n    tag_250:\n        /* \"#utility.yul\":13658:13696   */\n      tag_252\n        /* \"#utility.yul\":13690:13694   */\n      dup3\n        /* \"#utility.yul\":13684:13695   */\n      sload\n        /* \"#utility.yul\":13658:13696   */\n      tag_37\n      jump\t// in\n    tag_252:\n        /* \"#utility.yul\":13743:13810   */\n      tag_253\n        /* \"#utility.yul\":13803:13809   */\n      dup3\n        /* \"#utility.yul\":13795:13801   */\n      dup3\n        /* \"#utility.yul\":13789:13793   */\n      dup6\n        /* \"#utility.yul\":13743:13810   */\n      tag_89\n      jump\t// in\n    tag_253:\n        /* \"#utility.yul\":13837:13838   */\n      0x00\n        /* \"#utility.yul\":13861:13865   */\n      0x20\n        /* \"#utility.yul\":13848:13865   */\n      swap1\n      pop\n        /* \"#utility.yul\":13893:13895   */\n      0x1f\n        /* \"#utility.yul\":13885:13891   */\n      dup4\n        /* \"#utility.yul\":13882:13896   */\n      gt\n        /* \"#utility.yul\":13910:13911   */\n      0x01\n        /* \"#utility.yul\":13905:14523   */\n      dup2\n      eq\n      tag_255\n      jumpi\n        /* \"#utility.yul\":14567:14568   */\n      0x00\n        /* \"#utility.yul\":14584:14590   */\n      dup5\n        /* \"#utility.yul\":14581:14658   */\n      iszero\n      tag_256\n      jumpi\n        /* \"#utility.yul\":14633:14642   */\n      dup3\n        /* \"#utility.yul\":14628:14631   */\n      dup8\n        /* \"#utility.yul\":14624:14643   */\n      add\n        /* \"#utility.yul\":14618:14644   */\n      mload\n        /* \"#utility.yul\":14609:14644   */\n      swap1\n      pop\n        /* \"#utility.yul\":14581:14658   */\n    tag_256:\n        /* \"#utility.yul\":14684:14751   */\n      tag_257\n        /* \"#utility.yul\":14744:14750   */\n      dup6\n        /* \"#utility.yul\":14737:14742   */\n      dup3\n        /* \"#utility.yul\":14684:14751   */\n      tag_92\n      jump\t// in\n    tag_257:\n        /* \"#utility.yul\":14678:14682   */\n      dup7\n        /* \"#utility.yul\":14671:14752   */\n      sstore\n        /* \"#utility.yul\":14540:14762   */\n      pop\n        /* \"#utility.yul\":13875:14762   */\n      jump(tag_254)\n        /* \"#utility.yul\":13905:14523   */\n    tag_255:\n        /* \"#utility.yul\":13957:13961   */\n      0x1f\n        /* \"#utility.yul\":13953:13962   */\n      not\n        /* \"#utility.yul\":13945:13951   */\n      dup5\n        /* \"#utility.yul\":13941:13963   */\n      and\n        /* \"#utility.yul\":13991:14028   */\n      tag_258\n        /* \"#utility.yul\":14023:14027   */\n      dup7\n        /* \"#utility.yul\":13991:14028   */\n      tag_70\n      jump\t// in\n    tag_258:\n        /* \"#utility.yul\":14050:14051   */\n      0x00\n        /* \"#utility.yul\":14064:14272   */\n    tag_259:\n        /* \"#utility.yul\":14078:14085   */\n      dup3\n        /* \"#utility.yul\":14075:14076   */\n      dup2\n        /* \"#utility.yul\":14072:14086   */\n      lt\n        /* \"#utility.yul\":14064:14272   */\n      iszero\n      tag_261\n      jumpi\n        /* \"#utility.yul\":14157:14166   */\n      dup5\n        /* \"#utility.yul\":14152:14155   */\n      dup10\n        /* \"#utility.yul\":14148:14167   */\n      add\n        /* \"#utility.yul\":14142:14168   */\n      mload\n        /* \"#utility.yul\":14134:14140   */\n      dup3\n        /* \"#utility.yul\":14127:14169   */\n      sstore\n        /* \"#utility.yul\":14208:14209   */\n      0x01\n        /* \"#utility.yul\":14200:14206   */\n      dup3\n        /* \"#utility.yul\":14196:14210   */\n      add\n        /* \"#utility.yul\":14186:14210   */\n      swap2\n      pop\n        /* \"#utility.yul\":14255:14257   */\n      0x20\n        /* \"#utility.yul\":14244:14253   */\n      dup6\n        /* \"#utility.yul\":14240:14258   */\n      add\n        /* \"#utility.yul\":14227:14258   */\n      swap5\n      pop\n        /* \"#utility.yul\":14101:14105   */\n      0x20\n        /* \"#utility.yul\":14098:14099   */\n      dup2\n        /* \"#utility.yul\":14094:14106   */\n      add\n        /* \"#utility.yul\":14089:14106   */\n      swap1\n      pop\n        /* \"#utility.yul\":14064:14272   */\n      jump(tag_259)\n    tag_261:\n        /* \"#utility.yul\":14300:14306   */\n      dup7\n        /* \"#utility.yul\":14291:14298   */\n      dup4\n        /* \"#utility.yul\":14288:14307   */\n      lt\n        /* \"#utility.yul\":14285:14464   */\n      iszero\n      tag_262\n      jumpi\n        /* \"#utility.yul\":14358:14367   */\n      dup5\n        /* \"#utility.yul\":14353:14356   */\n      dup10\n        /* \"#utility.yul\":14349:14368   */\n      add\n        /* \"#utility.yul\":14343:14369   */\n      mload\n        /* \"#utility.yul\":14401:14449   */\n      tag_263\n        /* \"#utility.yul\":14443:14447   */\n      0x1f\n        /* \"#utility.yul\":14435:14441   */\n      dup10\n        /* \"#utility.yul\":14431:14448   */\n      and\n        /* \"#utility.yul\":14420:14429   */\n      dup3\n        /* \"#utility.yul\":14401:14449   */\n      tag_91\n      jump\t// in\n    tag_263:\n        /* \"#utility.yul\":14393:14399   */\n      dup4\n        /* \"#utility.yul\":14386:14450   */\n      sstore\n        /* \"#utility.yul\":14308:14464   */\n      pop\n        /* \"#utility.yul\":14285:14464   */\n    tag_262:\n        /* \"#utility.yul\":14510:14511   */\n      0x01\n        /* \"#utility.yul\":14506:14507   */\n      0x02\n        /* \"#utility.yul\":14498:14504   */\n      dup9\n        /* \"#utility.yul\":14494:14508   */\n      mul\n        /* \"#utility.yul\":14490:14512   */\n      add\n        /* \"#utility.yul\":14484:14488   */\n      dup9\n        /* \"#utility.yul\":14477:14513   */\n      sstore\n        /* \"#utility.yul\":13912:14523   */\n      pop\n      pop\n      pop\n        /* \"#utility.yul\":13875:14762   */\n    tag_254:\n      pop\n        /* \"#utility.yul\":13465:14768   */\n      pop\n      pop\n      pop\n        /* \"#utility.yul\":13373:14768   */\n      pop\n      pop\n      jump\t// out\n        /* \"#utility.yul\":14774:15087   */\n    tag_34:\n        /* \"#utility.yul\":14887:14891   */\n      0x00\n        /* \"#utility.yul\":14925:14927   */\n      0x20\n        /* \"#utility.yul\":14914:14923   */\n      dup3\n        /* \"#utility.yul\":14910:14928   */\n      add\n        /* \"#utility.yul\":14902:14928   */\n      swap1\n      pop\n        /* \"#utility.yul\":14974:14983   */\n      dup2\n        /* \"#utility.yul\":14968:14972   */\n      dup2\n        /* \"#utility.yul\":14964:14984   */\n      sub\n        /* \"#utility.yul\":14960:14961   */\n      0x00\n        /* \"#utility.yul\":14949:14958   */\n      dup4\n        /* \"#utility.yul\":14945:14962   */\n      add\n        /* \"#utility.yul\":14938:14985   */\n      mstore\n        /* \"#utility.yul\":15002:15080   */\n      tag_265\n        /* \"#utility.yul\":15075:15079   */\n      dup2\n        /* \"#utility.yul\":15066:15072   */\n      dup5\n        /* \"#utility.yul\":15002:15080   */\n      tag_63\n      jump\t// in\n    tag_265:\n        /* \"#utility.yul\":14994:15080   */\n      swap1\n      pop\n        /* \"#utility.yul\":14774:15087   */\n      swap3\n      swap2\n      pop\n      pop\n      jump\t// out\n\n    auxdata: 0xa26469706673582212200cc97cfc349abff6bfd94fddfafede19bee96e5df65b4cdc44a1a1ba7155c52264736f6c63430008180033\n}\n",
				"bytecode": {
					"linkReferences": {},
					"object": "608060405234801561001057600080fd5b50610bd8806100206000396000f3fe608060405234801561001057600080fd5b50600436106100415760003560e01c80633bbb2437146100465780637732bb69146100765780637a02dc0614610092575b600080fd5b610060600480360381019061005b9190610511565b6100c3565b60405161006d9190610588565b60405180910390f35b610090600480360381019061008b91906105a3565b61018a565b005b6100ac60048036038101906100a791906105ec565b6102a9565b6040516100ba9291906106d9565b60405180910390f35b60008060008085815260200190815260200160002090506000836040516020016100ed9190610745565b60405160208183030381529060405280519060200120826000016040516020016101179190610854565b604051602081830303815290604052805190602001201490503373ffffffffffffffffffffffffffffffffffffffff16857fa18a0a76aafec2f7ff5831e22683b69432c10fb420b28cdb5627c088cbd7ed1d836040516101779190610588565b60405180910390a3809250505092915050565b60008133426040516020016101a1939291906108de565b60405160208183030381529060405280519060200120905060405180604001604052808381526020013373ffffffffffffffffffffffffffffffffffffffff16815250600080838152602001908152602001600020600082015181600001908161020b9190610aae565b5060208201518160010160006101000a81548173ffffffffffffffffffffffffffffffffffffffff021916908373ffffffffffffffffffffffffffffffffffffffff1602179055509050503373ffffffffffffffffffffffffffffffffffffffff16817fe1e4766c53fc8f5cc9de6ac92a44e1c755a9c5fa8d03debd03a6d3b5e57767068460405161029d9190610b80565b60405180910390a35050565b60606000806000808581526020019081526020016000209050806000018160010160009054906101000a900473ffffffffffffffffffffffffffffffffffffffff168180546102f79061078b565b80601f01602080910402602001604051908101604052809291908181526020018280546103239061078b565b80156103705780601f1061034557610100808354040283529160200191610370565b820191906000526020600020905b81548152906001019060200180831161035357829003601f168201915b505050505091509250925050915091565b6000604051905090565b600080fd5b600080fd5b6000819050919050565b6103a881610395565b81146103b357600080fd5b50565b6000813590506103c58161039f565b92915050565b600080fd5b600080fd5b6000601f19601f8301169050919050565b7f4e487b7100000000000000000000000000000000000000000000000000000000600052604160045260246000fd5b61041e826103d5565b810181811067ffffffffffffffff8211171561043d5761043c6103e6565b5b80604052505050565b6000610450610381565b905061045c8282610415565b919050565b600067ffffffffffffffff82111561047c5761047b6103e6565b5b610485826103d5565b9050602081019050919050565b82818337600083830152505050565b60006104b46104af84610461565b610446565b9050828152602081018484840111156104d0576104cf6103d0565b5b6104db848285610492565b509392505050565b600082601f8301126104f8576104f76103cb565b5b81356105088482602086016104a1565b91505092915050565b600080604083850312156105285761052761038b565b5b6000610536858286016103b6565b925050602083013567ffffffffffffffff81111561055757610556610390565b5b610563858286016104e3565b9150509250929050565b60008115159050919050565b6105828161056d565b82525050565b600060208201905061059d6000830184610579565b92915050565b6000602082840312156105b9576105b861038b565b5b600082013567ffffffffffffffff8111156105d7576105d6610390565b5b6105e3848285016104e3565b91505092915050565b6000602082840312156106025761060161038b565b5b6000610610848285016103b6565b91505092915050565b600081519050919050565b600082825260208201905092915050565b60005b83811015610653578082015181840152602081019050610638565b60008484015250505050565b600061066a82610619565b6106748185610624565b9350610684818560208601610635565b61068d816103d5565b840191505092915050565b600073ffffffffffffffffffffffffffffffffffffffff82169050919050565b60006106c382610698565b9050919050565b6106d3816106b8565b82525050565b600060408201905081810360008301526106f3818561065f565b905061070260208301846106ca565b9392505050565b600081905092915050565b600061071f82610619565b6107298185610709565b9350610739818560208601610635565b80840191505092915050565b60006107518284610714565b915081905092915050565b7f4e487b7100000000000000000000000000000000000000000000000000000000600052602260045260246000fd5b600060028204905060018216806107a357607f821691505b6020821081036107b6576107b561075c565b5b50919050565b60008190508160005260206000209050919050565b600081546107de8161078b565b6107e88186610709565b9450600182166000811461080357600181146108185761084b565b60ff198316865281151582028601935061084b565b610821856107bc565b60005b8381101561084357815481890152600182019150602081019050610824565b838801955050505b50505092915050565b600061086082846107d1565b915081905092915050565b60008160601b9050919050565b60006108838261086b565b9050919050565b600061089582610878565b9050919050565b6108ad6108a8826106b8565b61088a565b82525050565b6000819050919050565b6000819050919050565b6108d86108d3826108b3565b6108bd565b82525050565b60006108ea8286610714565b91506108f6828561089c565b60148201915061090682846108c7565b602082019150819050949350505050565b60006020601f8301049050919050565b600082821b905092915050565b6000600883026109647fffffffffffffffffffffffffffffffffffffffffffffffffffffffffffffffff82610927565b61096e8683610927565b95508019841693508086168417925050509392505050565b6000819050919050565b60006109ab6109a66109a1846108b3565b610986565b6108b3565b9050919050565b6000819050919050565b6109c583610990565b6109d96109d1826109b2565b848454610934565b825550505050565b600090565b6109ee6109e1565b6109f98184846109bc565b505050565b5b81811015610a1d57610a126000826109e6565b6001810190506109ff565b5050565b601f821115610a6257610a33816107bc565b610a3c84610917565b81016020851015610a4b578190505b610a5f610a5785610917565b8301826109fe565b50505b505050565b600082821c905092915050565b6000610a8560001984600802610a67565b1980831691505092915050565b6000610a9e8383610a74565b9150826002028217905092915050565b610ab782610619565b67ffffffffffffffff811115610ad057610acf6103e6565b5b610ada825461078b565b610ae5828285610a21565b600060209050601f831160018114610b185760008415610b06578287015190505b610b108582610a92565b865550610b78565b601f198416610b26866107bc565b60005b82811015610b4e57848901518255600182019150602085019450602081019050610b29565b86831015610b6b5784890151610b67601f891682610a74565b8355505b6001600288020188555050505b505050505050565b60006020820190508181036000830152610b9a818461065f565b90509291505056fea26469706673582212200cc97cfc349abff6bfd94fddfafede19bee96e5df65b4cdc44a1a1ba7155c52264736f6c63430008180033",
					"opcodes": "PUSH1 0x80 PUSH1 0x40 MSTORE CALLVALUE DUP1 ISZERO PUSH2 0x10 JUMPI PUSH1 0x0 DUP1 REVERT JUMPDEST POP PUSH2 0xBD8 DUP1 PUSH2 0x20 PUSH1 0x0 CODECOPY PUSH1 0x0 RETURN INVALID PUSH1 0x80 PUSH1 0x40 MSTORE CALLVALUE DUP1 ISZERO PUSH2 0x10 JUMPI PUSH1 0x0 DUP1 REVERT JUMPDEST POP PUSH1 0x4 CALLDATASIZE LT PUSH2 0x41 JUMPI PUSH1 0x0 CALLDATALOAD PUSH1 0xE0 SHR DUP1 PUSH4 0x3BBB2437 EQ PUSH2 0x46 JUMPI DUP1 PUSH4 0x7732BB69 EQ PUSH2 0x76 JUMPI DUP1 PUSH4 0x7A02DC06 EQ PUSH2 0x92 JUMPI JUMPDEST PUSH1 0x0 DUP1 REVERT JUMPDEST PUSH2 0x60 PUSH1 0x4 DUP1 CALLDATASIZE SUB DUP2 ADD SWAP1 PUSH2 0x5B SWAP2 SWAP1 PUSH2 0x511 JUMP JUMPDEST PUSH2 0xC3 JUMP JUMPDEST PUSH1 0x40 MLOAD PUSH2 0x6D SWAP2 SWAP1 PUSH2 0x588 JUMP JUMPDEST PUSH1 0x40 MLOAD DUP1 SWAP2 SUB SWAP1 RETURN JUMPDEST PUSH2 0x90 PUSH1 0x4 DUP1 CALLDATASIZE SUB DUP2 ADD SWAP1 PUSH2 0x8B SWAP2 SWAP1 PUSH2 0x5A3 JUMP JUMPDEST PUSH2 0x18A JUMP JUMPDEST STOP JUMPDEST PUSH2 0xAC PUSH1 0x4 DUP1 CALLDATASIZE SUB DUP2 ADD SWAP1 PUSH2 0xA7 SWAP2 SWAP1 PUSH2 0x5EC JUMP JUMPDEST PUSH2 0x2A9 JUMP JUMPDEST PUSH1 0x40 MLOAD PUSH2 0xBA SWAP3 SWAP2 SWAP1 PUSH2 0x6D9 JUMP JUMPDEST PUSH1 0x40 MLOAD DUP1 SWAP2 SUB SWAP1 RETURN JUMPDEST PUSH1 0x0 DUP1 PUSH1 0x0 DUP1 DUP6 DUP2 MSTORE PUSH1 0x20 ADD SWAP1 DUP2 MSTORE PUSH1 0x20 ADD PUSH1 0x0 KECCAK256 SWAP1 POP PUSH1 0x0 DUP4 PUSH1 0x40 MLOAD PUSH1 0x20 ADD PUSH2 0xED SWAP2 SWAP1 PUSH2 0x745 JUMP JUMPDEST PUSH1 0x40 MLOAD PUSH1 0x20 DUP2 DUP4 SUB SUB DUP2 MSTORE SWAP1 PUSH1 0x40 MSTORE DUP1 MLOAD SWAP1 PUSH1 0x20 ADD KECCAK256 DUP3 PUSH1 0x0 ADD PUSH1 0x40 MLOAD PUSH1 0x20 ADD PUSH2 0x117 SWAP2 SWAP1 PUSH2 0x854 JUMP JUMPDEST PUSH1 0x40 MLOAD PUSH1 0x20 DUP2 DUP4 SUB SUB DUP2 MSTORE SWAP1 PUSH1 0x40 MSTORE DUP1 MLOAD SWAP1 PUSH1 0x20 ADD KECCAK256 EQ SWAP1 POP CALLER PUSH20 0xFFFFFFFFFFFFFFFFFFFFFFFFFFFFFFFFFFFFFFFF AND DUP6 PUSH32 0xA18A0A76AAFEC2F7FF5831E22683B69432C10FB420B28CDB5627C088CBD7ED1D DUP4 PUSH1 0x40 MLOAD PUSH2 0x177 SWAP2 SWAP1 PUSH2 0x588 JUMP JUMPDEST PUSH1 0x40 MLOAD DUP1 SWAP2 SUB SWAP1 LOG3 DUP1 SWAP3 POP POP POP SWAP3 SWAP2 POP POP JUMP JUMPDEST PUSH1 0x0 DUP2 CALLER TIMESTAMP PUSH1 0x40 MLOAD PUSH1 0x20 ADD PUSH2 0x1A1 SWAP4 SWAP3 SWAP2 SWAP1 PUSH2 0x8DE JUMP JUMPDEST PUSH1 0x40 MLOAD PUSH1 0x20 DUP2 DUP4 SUB SUB DUP2 MSTORE SWAP1 PUSH1 0x40 MSTORE DUP1 MLOAD SWAP1 PUSH1 0x20 ADD KECCAK256 SWAP1 POP PUSH1 0x40 MLOAD DUP1 PUSH1 0x40 ADD PUSH1 0x40 MSTORE DUP1 DUP4 DUP2 MSTORE PUSH1 0x20 ADD CALLER PUSH20 0xFFFFFFFFFFFFFFFFFFFFFFFFFFFFFFFFFFFFFFFF AND DUP2 MSTORE POP PUSH1 0x0 DUP1 DUP4 DUP2 MSTORE PUSH1 0x20 ADD SWAP1 DUP2 MSTORE PUSH1 0x20 ADD PUSH1 0x0 KECCAK256 PUSH1 0x0 DUP3 ADD MLOAD DUP2 PUSH1 0x0 ADD SWAP1 DUP2 PUSH2 0x20B SWAP2 SWAP1 PUSH2 0xAAE JUMP JUMPDEST POP PUSH1 0x20 DUP3 ADD MLOAD DUP2 PUSH1 0x1 ADD PUSH1 0x0 PUSH2 0x100 EXP DUP2 SLOAD DUP2 PUSH20 0xFFFFFFFFFFFFFFFFFFFFFFFFFFFFFFFFFFFFFFFF MUL NOT AND SWAP1 DUP4 PUSH20 0xFFFFFFFFFFFFFFFFFFFFFFFFFFFFFFFFFFFFFFFF AND MUL OR SWAP1 SSTORE POP SWAP1 POP POP CALLER PUSH20 0xFFFFFFFFFFFFFFFFFFFFFFFFFFFFFFFFFFFFFFFF AND DUP2 PUSH32 0xE1E4766C53FC8F5CC9DE6AC92A44E1C755A9C5FA8D03DEBD03A6D3B5E5776706 DUP5 PUSH1 0x40 MLOAD PUSH2 0x29D SWAP2 SWAP1 PUSH2 0xB80 JUMP JUMPDEST PUSH1 0x40 MLOAD DUP1 SWAP2 SUB SWAP1 LOG3 POP POP JUMP JUMPDEST PUSH1 0x60 PUSH1 0x0 DUP1 PUSH1 0x0 DUP1 DUP6 DUP2 MSTORE PUSH1 0x20 ADD SWAP1 DUP2 MSTORE PUSH1 0x20 ADD PUSH1 0x0 KECCAK256 SWAP1 POP DUP1 PUSH1 0x0 ADD DUP2 PUSH1 0x1 ADD PUSH1 0x0 SWAP1 SLOAD SWAP1 PUSH2 0x100 EXP SWAP1 DIV PUSH20 0xFFFFFFFFFFFFFFFFFFFFFFFFFFFFFFFFFFFFFFFF AND DUP2 DUP1 SLOAD PUSH2 0x2F7 SWAP1 PUSH2 0x78B JUMP JUMPDEST DUP1 PUSH1 0x1F ADD PUSH1 0x20 DUP1 SWAP2 DIV MUL PUSH1 0x20 ADD PUSH1 0x40 MLOAD SWAP1 DUP2 ADD PUSH1 0x40 MSTORE DUP1 SWAP3 SWAP2 SWAP1 DUP2 DUP2 MSTORE PUSH1 0x20 ADD DUP3 DUP1 SLOAD PUSH2 0x323 SWAP1 PUSH2 0x78B JUMP JUMPDEST DUP1 ISZERO PUSH2 0x370 JUMPI DUP1 PUSH1 0x1F LT PUSH2 0x345 JUMPI PUSH2 0x100 DUP1 DUP4 SLOAD DIV MUL DUP4 MSTORE SWAP2 PUSH1 0x20 ADD SWAP2 PUSH2 0x370 JUMP JUMPDEST DUP3 ADD SWAP2 SWAP1 PUSH1 0x0 MSTORE PUSH1 0x20 PUSH1 0x0 KECCAK256 SWAP1 JUMPDEST DUP2 SLOAD DUP2 MSTORE SWAP1 PUSH1 0x1 ADD SWAP1 PUSH1 0x20 ADD DUP1 DUP4 GT PUSH2 0x353 JUMPI DUP3 SWAP1 SUB PUSH1 0x1F AND DUP3 ADD SWAP2 JUMPDEST POP POP POP POP POP SWAP2 POP SWAP3 POP SWAP3 POP POP SWAP2 POP SWAP2 JUMP JUMPDEST PUSH1 0x0 PUSH1 0x40 MLOAD SWAP1 POP SWAP1 JUMP JUMPDEST PUSH1 0x0 DUP1 REVERT JUMPDEST PUSH1 0x0 DUP1 REVERT JUMPDEST PUSH1 0x0 DUP2 SWAP1 POP SWAP2 SWAP1 POP JUMP JUMPDEST PUSH2 0x3A8 DUP2 PUSH2 0x395 JUMP JUMPDEST DUP2 EQ PUSH2 0x3B3 JUMPI PUSH1 0x0 DUP1 REVERT JUMPDEST POP JUMP JUMPDEST PUSH1 0x0 DUP2 CALLDATALOAD SWAP1 POP PUSH2 0x3C5 DUP2 PUSH2 0x39F JUMP JUMPDEST SWAP3 SWAP2 POP POP JUMP JUMPDEST PUSH1 0x0 DUP1 REVERT JUMPDEST PUSH1 0x0 DUP1 REVERT JUMPDEST PUSH1 0x0 PUSH1 0x1F NOT PUSH1 0x1F DUP4 ADD AND SWAP1 POP SWAP2 SWAP1 POP JUMP JUMPDEST PUSH32 0x4E487B7100000000000000000000000000000000000000000000000000000000 PUSH1 0x0 MSTORE PUSH1 0x41 PUSH1 0x4 MSTORE PUSH1 0x24 PUSH1 0x0 REVERT JUMPDEST PUSH2 0x41E DUP3 PUSH2 0x3D5 JUMP JUMPDEST DUP2 ADD DUP2 DUP2 LT PUSH8 0xFFFFFFFFFFFFFFFF DUP3 GT OR ISZERO PUSH2 0x43D JUMPI PUSH2 0x43C PUSH2 0x3E6 JUMP JUMPDEST JUMPDEST DUP1 PUSH1 0x40 MSTORE POP POP POP JUMP JUMPDEST PUSH1 0x0 PUSH2 0x450 PUSH2 0x381 JUMP JUMPDEST SWAP1 POP PUSH2 0x45C DUP3 DUP3 PUSH2 0x415 JUMP JUMPDEST SWAP2 SWAP1 POP JUMP JUMPDEST PUSH1 0x0 PUSH8 0xFFFFFFFFFFFFFFFF DUP3 GT ISZERO PUSH2 0x47C JUMPI PUSH2 0x47B PUSH2 0x3E6 JUMP JUMPDEST JUMPDEST PUSH2 0x485 DUP3 PUSH2 0x3D5 JUMP JUMPDEST SWAP1 POP PUSH1 0x20 DUP2 ADD SWAP1 POP SWAP2 SWAP1 POP JUMP JUMPDEST DUP3 DUP2 DUP4 CALLDATACOPY PUSH1 0x0 DUP4 DUP4 ADD MSTORE POP POP POP JUMP JUMPDEST PUSH1 0x0 PUSH2 0x4B4 PUSH2 0x4AF DUP5 PUSH2 0x461 JUMP JUMPDEST PUSH2 0x446 JUMP JUMPDEST SWAP1 POP DUP3 DUP2 MSTORE PUSH1 0x20 DUP2 ADD DUP5 DUP5 DUP5 ADD GT ISZERO PUSH2 0x4D0 JUMPI PUSH2 0x4CF PUSH2 0x3D0 JUMP JUMPDEST JUMPDEST PUSH2 0x4DB DUP5 DUP3 DUP6 PUSH2 0x492 JUMP JUMPDEST POP SWAP4 SWAP3 POP POP POP JUMP JUMPDEST PUSH1 0x0 DUP3 PUSH1 0x1F DUP4 ADD SLT PUSH2 0x4F8 JUMPI PUSH2 0x4F7 PUSH2 0x3CB JUMP JUMPDEST JUMPDEST DUP2 CALLDATALOAD PUSH2 0x508 DUP5 DUP3 PUSH1 0x20 DUP7 ADD PUSH2 0x4A1 JUMP JUMPDEST SWAP2 POP POP SWAP3 SWAP2 POP POP JUMP JUMPDEST PUSH1 0x0 DUP1 PUSH1 0x40 DUP4 DUP6 SUB SLT ISZERO PUSH2 0x528 JUMPI PUSH2 0x527 PUSH2 0x38B JUMP JUMPDEST JUMPDEST PUSH1 0x0 PUSH2 0x536 DUP6 DUP3 DUP7 ADD PUSH2 0x3B6 JUMP JUMPDEST SWAP3 POP POP PUSH1 0x20 DUP4 ADD CALLDATALOAD PUSH8 0xFFFFFFFFFFFFFFFF DUP2 GT ISZERO PUSH2 0x557 JUMPI PUSH2 0x556 PUSH2 0x390 JUMP JUMPDEST JUMPDEST PUSH2 0x563 DUP6 DUP3 DUP7 ADD PUSH2 0x4E3 JUMP JUMPDEST SWAP2 POP POP SWAP3 POP SWAP3 SWAP1 POP JUMP JUMPDEST PUSH1 0x0 DUP2 ISZERO ISZERO SWAP1 POP SWAP2 SWAP1 POP JUMP JUMPDEST PUSH2 0x582 DUP2 PUSH2 0x56D JUMP JUMPDEST DUP3 MSTORE POP POP JUMP JUMPDEST PUSH1 0x0 PUSH1 0x20 DUP3 ADD SWAP1 POP PUSH2 0x59D PUSH1 0x0 DUP4 ADD DUP5 PUSH2 0x579 JUMP JUMPDEST SWAP3 SWAP2 POP POP JUMP JUMPDEST PUSH1 0x0 PUSH1 0x20 DUP3 DUP5 SUB SLT ISZERO PUSH2 0x5B9 JUMPI PUSH2 0x5B8 PUSH2 0x38B JUMP JUMPDEST JUMPDEST PUSH1 0x0 DUP3 ADD CALLDATALOAD PUSH8 0xFFFFFFFFFFFFFFFF DUP2 GT ISZERO PUSH2 0x5D7 JUMPI PUSH2 0x5D6 PUSH2 0x390 JUMP JUMPDEST JUMPDEST PUSH2 0x5E3 DUP5 DUP3 DUP6 ADD PUSH2 0x4E3 JUMP JUMPDEST SWAP2 POP POP SWAP3 SWAP2 POP POP JUMP JUMPDEST PUSH1 0x0 PUSH1 0x20 DUP3 DUP5 SUB SLT ISZERO PUSH2 0x602 JUMPI PUSH2 0x601 PUSH2 0x38B JUMP JUMPDEST JUMPDEST PUSH1 0x0 PUSH2 0x610 DUP5 DUP3 DUP6 ADD PUSH2 0x3B6 JUMP JUMPDEST SWAP2 POP POP SWAP3 SWAP2 POP POP JUMP JUMPDEST PUSH1 0x0 DUP2 MLOAD SWAP1 POP SWAP2 SWAP1 POP JUMP JUMPDEST PUSH1 0x0 DUP3 DUP3 MSTORE PUSH1 0x20 DUP3 ADD SWAP1 POP SWAP3 SWAP2 POP POP JUMP JUMPDEST PUSH1 0x0 JUMPDEST DUP4 DUP2 LT ISZERO PUSH2 0x653 JUMPI DUP1 DUP3 ADD MLOAD DUP2 DUP5 ADD MSTORE PUSH1 0x20 DUP2 ADD SWAP1 POP PUSH2 0x638 JUMP JUMPDEST PUSH1 0x0 DUP5 DUP5 ADD MSTORE POP POP POP POP JUMP JUMPDEST PUSH1 0x0 PUSH2 0x66A DUP3 PUSH2 0x619 JUMP JUMPDEST PUSH2 0x674 DUP2 DUP6 PUSH2 0x624 JUMP JUMPDEST SWAP4 POP PUSH2 0x684 DUP2 DUP6 PUSH1 0x20 DUP7 ADD PUSH2 0x635 JUMP JUMPDEST PUSH2 0x68D DUP2 PUSH2 0x3D5 JUMP JUMPDEST DUP5 ADD SWAP2 POP POP SWAP3 SWAP2 POP POP JUMP JUMPDEST PUSH1 0x0 PUSH20 0xFFFFFFFFFFFFFFFFFFFFFFFFFFFFFFFFFFFFFFFF DUP3 AND SWAP1 POP SWAP2 SWAP1 POP JUMP JUMPDEST PUSH1 0x0 PUSH2 0x6C3 DUP3 PUSH2 0x698 JUMP JUMPDEST SWAP1 POP SWAP2 SWAP1 POP JUMP JUMPDEST PUSH2 0x6D3 DUP2 PUSH2 0x6B8 JUMP JUMPDEST DUP3 MSTORE POP POP JUMP JUMPDEST PUSH1 0x0 PUSH1 0x40 DUP3 ADD SWAP1 POP DUP2 DUP2 SUB PUSH1 0x0 DUP4 ADD MSTORE PUSH2 0x6F3 DUP2 DUP6 PUSH2 0x65F JUMP JUMPDEST SWAP1 POP PUSH2 0x702 PUSH1 0x20 DUP4 ADD DUP5 PUSH2 0x6CA JUMP JUMPDEST SWAP4 SWAP3 POP POP POP JUMP JUMPDEST PUSH1 0x0 DUP2 SWAP1 POP SWAP3 SWAP2 POP POP JUMP JUMPDEST PUSH1 0x0 PUSH2 0x71F DUP3 PUSH2 0x619 JUMP JUMPDEST PUSH2 0x729 DUP2 DUP6 PUSH2 0x709 JUMP JUMPDEST SWAP4 POP PUSH2 0x739 DUP2 DUP6 PUSH1 0x20 DUP7 ADD PUSH2 0x635 JUMP JUMPDEST DUP1 DUP5 ADD SWAP2 POP POP SWAP3 SWAP2 POP POP JUMP JUMPDEST PUSH1 0x0 PUSH2 0x751 DUP3 DUP5 PUSH2 0x714 JUMP JUMPDEST SWAP2 POP DUP2 SWAP1 POP SWAP3 SWAP2 POP POP JUMP JUMPDEST PUSH32 0x4E487B7100000000000000000000000000000000000000000000000000000000 PUSH1 0x0 MSTORE PUSH1 0x22 PUSH1 0x4 MSTORE PUSH1 0x24 PUSH1 0x0 REVERT JUMPDEST PUSH1 0x0 PUSH1 0x2 DUP3 DIV SWAP1 POP PUSH1 0x1 DUP3 AND DUP1 PUSH2 0x7A3 JUMPI PUSH1 0x7F DUP3 AND SWAP2 POP JUMPDEST PUSH1 0x20 DUP3 LT DUP2 SUB PUSH2 0x7B6 JUMPI PUSH2 0x7B5 PUSH2 0x75C JUMP JUMPDEST JUMPDEST POP SWAP2 SWAP1 POP JUMP JUMPDEST PUSH1 0x0 DUP2 SWAP1 POP DUP2 PUSH1 0x0 MSTORE PUSH1 0x20 PUSH1 0x0 KECCAK256 SWAP1 POP SWAP2 SWAP1 POP JUMP JUMPDEST PUSH1 0x0 DUP2 SLOAD PUSH2 0x7DE DUP2 PUSH2 0x78B JUMP JUMPDEST PUSH2 0x7E8 DUP2 DUP7 PUSH2 0x709 JUMP JUMPDEST SWAP5 POP PUSH1 0x1 DUP3 AND PUSH1 0x0 DUP2 EQ PUSH2 0x803 JUMPI PUSH1 0x1 DUP2 EQ PUSH2 0x818 JUMPI PUSH2 0x84B JUMP JUMPDEST PUSH1 0xFF NOT DUP4 AND DUP7 MSTORE DUP2 ISZERO ISZERO DUP3 MUL DUP7 ADD SWAP4 POP PUSH2 0x84B JUMP JUMPDEST PUSH2 0x821 DUP6 PUSH2 0x7BC JUMP JUMPDEST PUSH1 0x0 JUMPDEST DUP4 DUP2 LT ISZERO PUSH2 0x843 JUMPI DUP2 SLOAD DUP2 DUP10 ADD MSTORE PUSH1 0x1 DUP3 ADD SWAP2 POP PUSH1 0x20 DUP2 ADD SWAP1 POP PUSH2 0x824 JUMP JUMPDEST DUP4 DUP9 ADD SWAP6 POP POP POP JUMPDEST POP POP POP SWAP3 SWAP2 POP POP JUMP JUMPDEST PUSH1 0x0 PUSH2 0x860 DUP3 DUP5 PUSH2 0x7D1 JUMP JUMPDEST SWAP2 POP DUP2 SWAP1 POP SWAP3 SWAP2 POP POP JUMP JUMPDEST PUSH1 0x0 DUP2 PUSH1 0x60 SHL SWAP1 POP SWAP2 SWAP1 POP JUMP JUMPDEST PUSH1 0x0 PUSH2 0x883 DUP3 PUSH2 0x86B JUMP JUMPDEST SWAP1 POP SWAP2 SWAP1 POP JUMP JUMPDEST PUSH1 0x0 PUSH2 0x895 DUP3 PUSH2 0x878 JUMP JUMPDEST SWAP1 POP SWAP2 SWAP1 POP JUMP JUMPDEST PUSH2 0x8AD PUSH2 0x8A8 DUP3 PUSH2 0x6B8 JUMP JUMPDEST PUSH2 0x88A JUMP JUMPDEST DUP3 MSTORE POP POP JUMP JUMPDEST PUSH1 0x0 DUP2 SWAP1 POP SWAP2 SWAP1 POP JUMP JUMPDEST PUSH1 0x0 DUP2 SWAP1 POP SWAP2 SWAP1 POP JUMP JUMPDEST PUSH2 0x8D8 PUSH2 0x8D3 DUP3 PUSH2 0x8B3 JUMP JUMPDEST PUSH2 0x8BD JUMP JUMPDEST DUP3 MSTORE POP POP JUMP JUMPDEST PUSH1 0x0 PUSH2 0x8EA DUP3 DUP7 PUSH2 0x714 JUMP JUMPDEST SWAP2 POP PUSH2 0x8F6 DUP3 DUP6 PUSH2 0x89C JUMP JUMPDEST PUSH1 0x14 DUP3 ADD SWAP2 POP PUSH2 0x906 DUP3 DUP5 PUSH2 0x8C7 JUMP JUMPDEST PUSH1 0x20 DUP3 ADD SWAP2 POP DUP2 SWAP1 POP SWAP5 SWAP4 POP POP POP POP JUMP JUMPDEST PUSH1 0x0 PUSH1 0x20 PUSH1 0x1F DUP4 ADD DIV SWAP1 POP SWAP2 SWAP1 POP JUMP JUMPDEST PUSH1 0x0 DUP3 DUP3 SHL SWAP1 POP SWAP3 SWAP2 POP POP JUMP JUMPDEST PUSH1 0x0 PUSH1 0x8 DUP4 MUL PUSH2 0x964 PUSH32 0xFFFFFFFFFFFFFFFFFFFFFFFFFFFFFFFFFFFFFFFFFFFFFFFFFFFFFFFFFFFFFFFF DUP3 PUSH2 0x927 JUMP JUMPDEST PUSH2 0x96E DUP7 DUP4 PUSH2 0x927 JUMP JUMPDEST SWAP6 POP DUP1 NOT DUP5 AND SWAP4 POP DUP1 DUP7 AND DUP5 OR SWAP3 POP POP POP SWAP4 SWAP3 POP POP POP JUMP JUMPDEST PUSH1 0x0 DUP2 SWAP1 POP SWAP2 SWAP1 POP JUMP JUMPDEST PUSH1 0x0 PUSH2 0x9AB PUSH2 0x9A6 PUSH2 0x9A1 DUP5 PUSH2 0x8B3 JUMP JUMPDEST PUSH2 0x986 JUMP JUMPDEST PUSH2 0x8B3 JUMP JUMPDEST SWAP1 POP SWAP2 SWAP1 POP JUMP JUMPDEST PUSH1 0x0 DUP2 SWAP1 POP SWAP2 SWAP1 POP JUMP JUMPDEST PUSH2 0x9C5 DUP4 PUSH2 0x990 JUMP JUMPDEST PUSH2 0x9D9 PUSH2 0x9D1 DUP3 PUSH2 0x9B2 JUMP JUMPDEST DUP5 DUP5 SLOAD PUSH2 0x934 JUMP JUMPDEST DUP3 SSTORE POP POP POP POP JUMP JUMPDEST PUSH1 0x0 SWAP1 JUMP JUMPDEST PUSH2 0x9EE PUSH2 0x9E1 JUMP JUMPDEST PUSH2 0x9F9 DUP2 DUP5 DUP5 PUSH2 0x9BC JUMP JUMPDEST POP POP POP JUMP JUMPDEST JUMPDEST DUP2 DUP2 LT ISZERO PUSH2 0xA1D JUMPI PUSH2 0xA12 PUSH1 0x0 DUP3 PUSH2 0x9E6 JUMP JUMPDEST PUSH1 0x1 DUP2 ADD SWAP1 POP PUSH2 0x9FF JUMP JUMPDEST POP POP JUMP JUMPDEST PUSH1 0x1F DUP3 GT ISZERO PUSH2 0xA62 JUMPI PUSH2 0xA33 DUP2 PUSH2 0x7BC JUMP JUMPDEST PUSH2 0xA3C DUP5 PUSH2 0x917 JUMP JUMPDEST DUP2 ADD PUSH1 0x20 DUP6 LT ISZERO PUSH2 0xA4B JUMPI DUP2 SWAP1 POP JUMPDEST PUSH2 0xA5F PUSH2 0xA57 DUP6 PUSH2 0x917 JUMP JUMPDEST DUP4 ADD DUP3 PUSH2 0x9FE JUMP JUMPDEST POP POP JUMPDEST POP POP POP JUMP JUMPDEST PUSH1 0x0 DUP3 DUP3 SHR SWAP1 POP SWAP3 SWAP2 POP POP JUMP JUMPDEST PUSH1 0x0 PUSH2 0xA85 PUSH1 0x0 NOT DUP5 PUSH1 0x8 MUL PUSH2 0xA67 JUMP JUMPDEST NOT DUP1 DUP4 AND SWAP2 POP POP SWAP3 SWAP2 POP POP JUMP JUMPDEST PUSH1 0x0 PUSH2 0xA9E DUP4 DUP4 PUSH2 0xA74 JUMP JUMPDEST SWAP2 POP DUP3 PUSH1 0x2 MUL DUP3 OR SWAP1 POP SWAP3 SWAP2 POP POP JUMP JUMPDEST PUSH2 0xAB7 DUP3 PUSH2 0x619 JUMP JUMPDEST PUSH8 0xFFFFFFFFFFFFFFFF DUP2 GT ISZERO PUSH2 0xAD0 JUMPI PUSH2 0xACF PUSH2 0x3E6 JUMP JUMPDEST JUMPDEST PUSH2 0xADA DUP3 SLOAD PUSH2 0x78B JUMP JUMPDEST PUSH2 0xAE5 DUP3 DUP3 DUP6 PUSH2 0xA21 JUMP JUMPDEST PUSH1 0x0 PUSH1 0x20 SWAP1 POP PUSH1 0x1F DUP4 GT PUSH1 0x1 DUP2 EQ PUSH2 0xB18 JUMPI PUSH1 0x0 DUP5 ISZERO PUSH2 0xB06 JUMPI DUP3 DUP8 ADD MLOAD SWAP1 POP JUMPDEST PUSH2 0xB10 DUP6 DUP3 PUSH2 0xA92 JUMP JUMPDEST DUP7 SSTORE POP PUSH2 0xB78 JUMP JUMPDEST PUSH1 0x1F NOT DUP5 AND PUSH2 0xB26 DUP7 PUSH2 0x7BC JUMP JUMPDEST PUSH1 0x0 JUMPDEST DUP3 DUP2 LT ISZERO PUSH2 0xB4E JUMPI DUP5 DUP10 ADD MLOAD DUP3 SSTORE PUSH1 0x1 DUP3 ADD SWAP2 POP PUSH1 0x20 DUP6 ADD SWAP5 POP PUSH1 0x20 DUP2 ADD SWAP1 POP PUSH2 0xB29 JUMP JUMPDEST DUP7 DUP4 LT ISZERO PUSH2 0xB6B JUMPI DUP5 DUP10 ADD MLOAD PUSH2 0xB67 PUSH1 0x1F DUP10 AND DUP3 PUSH2 0xA74 JUMP JUMPDEST DUP4 SSTORE POP JUMPDEST PUSH1 0x1 PUSH1 0x2 DUP9 MUL ADD DUP9 SSTORE POP POP POP JUMPDEST POP POP POP POP POP POP JUMP JUMPDEST PUSH1 0x0 PUSH1 0x20 DUP3 ADD SWAP1 POP DUP2 DUP2 SUB PUSH1 0x0 DUP4 ADD MSTORE PUSH2 0xB9A DUP2 DUP5 PUSH2 0x65F JUMP JUMPDEST SWAP1 POP SWAP3 SWAP2 POP POP JUMP INVALID LOG2 PUSH5 0x6970667358 0x22 SLT KECCAK256 0xC 0xC9 PUSH29 0xFC349ABFF6BFD94FDDFAFEDE19BEE96E5DF65B4CDC44A1A1BA7155C522 PUSH5 0x736F6C6343 STOP ADDMOD XOR STOP CALLER "
				},
				"gasEstimates": {
					"creation": {
						"codeDepositCost": "606400",
						"executionCost": "638",
						"totalCost": "607038"
					},
					"external": {
						"getInfo(bytes32)": "infinite",
						"storeInfo(string)": "infinite",
						"verifyInfo(bytes32,string)": "infinite"
					}
				},
				"methodIdentifiers": {
					"getInfo(bytes32)": "7a02dc06",
					"storeInfo(string)": "7732bb69",
					"verifyInfo(bytes32,string)": "3bbb2437"
				}
			},
			"storageLayout": {
				"storage": [
					{
						"astId": 11,
						"contract": "Verified.sol:DataVerification",
						"label": "infoStorage",
						"offset": 0,
						"slot": "0",
						"type": "t_mapping(t_bytes32,t_struct(Info)6_storage)"
					}
				],
				"types": {
					"t_address": {
						"encoding": "inplace",
						"label": "address",
						"numberOfBytes": "20"
					},
					"t_bytes32": {
						"encoding": "inplace",
						"label": "bytes32",
						"numberOfBytes": "32"
					},
					"t_mapping(t_bytes32,t_struct(Info)6_storage)": {
						"encoding": "mapping",
						"key": "t_bytes32",
						"label": "mapping(bytes32 => struct DataVerification.Info)",
						"numberOfBytes": "32",
						"value": "t_struct(Info)6_storage"
					},
					"t_string_storage": {
						"encoding": "bytes",
						"label": "string",
						"numberOfBytes": "32"
					},
					"t_struct(Info)6_storage": {
						"encoding": "inplace",
						"label": "struct DataVerification.Info",
						"members": [
							{
								"astId": 3,
								"contract": "Verified.sol:DataVerification",
								"label": "data",
								"offset": 0,
								"slot": "0",
								"type": "t_string_storage"
							},
							{
								"astId": 5,
								"contract": "Verified.sol:DataVerification",
								"label": "creator",
								"offset": 0,
								"slot": "1",
								"type": "t_address"
							}
						],
						"numberOfBytes": "64"
					}
				}
			},
			"userdoc": {
				"kind": "user",
				"methods": {},
				"version": 1
			}
		}
	}
}